:0400000007EF00F016
:1000080062827EED17F077EF22F0A40E0001B06F48
:10001800000EB16F54EF07F0250EC619D8B417EFCC
:1000280000F019EF00F023EF00F0A0C0D9FFA1C045
:10003800DAFFC6C0DFFFA04BA12B54EF07F0000E7C
:10004800BF6F000EBE6F000EBD6F000EBC6F37EFA6
:1000580000F037EF00F00001BC85A24BA32B37EF6F
:1000680000F047EF00F0A2C0F6FFA3C0F7FF0800BA
:10007800F550300AD8B42FEF00F047EF00F047EF03
:1000880000F037EF00F0A2C0F6FFA3C0F7FF0800AA
:10009800F5505EEC23F0D8A054EF00F056EF00F0D6
:1000A80095EF00F0000E0001BF6F000EBE6F5DEF10
:1000B80000F0BEC01EF0BFC01FF0000E216E0A0E79
:1000C800206EF9EC23F01EC0BEF01FC0BFF0D00EAA
:1000D8000001A86FFF0EA96FA2C0F6FFA3C0F7FF2B
:1000E8000800F550AA6FAB6BA851AA27A951AB23FA
:1000F800AA51BE27AB51BF23A24BA32BA2C0F6FF28
:10010800A3C0F7FF0800F5505EEC23F0D8B08FEFDE
:1001180000F091EF00F05DEF00F095EF00F095EF43
:1001280000F0A2C0F6FFA3C0F7FF0800F5502E0AA2
:10013800D8A4A1EF00F0A3EF00F0DEEF00F000017B
:10014800BD8DA24BA32B000EC56F000EC46FCBEF65
:1001580000F0C4C01EF0C5C01FF0000E216E0A0ECC
:10016800206EF9EC23F0A2C0F6FFA3C0F7FF080049
:10017800F5501E26000E1F22D00E1E240001C46F4B
:10018800FF0E1F20C56FA24BA32BCBEF00F0A2C020
:10019800F6FFA3C0F7FF0800F5505EEC23F0D8B0D7
:1001A800D8EF00F0DAEF00F0ADEF00F0F5EF00F077
:1001B800F5EF00F0000E0001C56F000EC46FBD8999
:1001C800F5EF00F0F5EF00F069EF07F0BD8512EFED
:1001D80001F012EF01F012EF01F054EF07F012EF07
:1001E80001F0A2C0F6FFA3C0F7FF0001A24BA32BAA
:1001F8000800F5CFC6F0C651000AD8B469EF07F079
:10020800640AD8B412EF01F0020AD8B4EAEF00F099
:100218000F0AD8B412EF01F054EF07F0070EBD151E
:10022800D8B419EF01F01BEF01F076EF05F0BDA986
:1002380020EF01F022EF01F028EF01F0000EC56F6A
:10024800060EC46F28EF01F0B0C0D9FFB1C0DAFFC5
:10025800DECFC0F0DECFC1F0DECFC2F0DECFC3F01C
:10026800040EB027000EB123C3BF3FEF01F03DEFEE
:1002780001F056EF01F0C0C032F0C1C033F0C2C087
:1002880034F0C3C035F03EEC23F032C0C0F033C0C8
:10029800C1F034C0C2F035C0C3F0030E0001BC1376
:1002A80056EF01F0000EBB6F000EBA6FC051C111BE
:1002B800C211C311D8B463EF01F065EF01F000EF8C
:1002C80002F0C235C335820FBA6FBB6BFF0EBB237A
:1002D800BA07D8A0BB07BAC01EF0BBC01FF0000EFB
:1002E800216E030E206EF9EC23F01EC0BAF01FC079
:1002F800BBF0BAC024F0BBC025F0000E276E0A0E72
:10030800266E94EC1EF024C0BAF025C0BBF00001A4
:10031800BBBF93EF01F091EF01F098EF01F0BA073E
:10032800D8A0BB0798EF01F0BA510008EAEC10F02A
:1003380045C0B2F046C0B3F047C0B4F048C0B5F00D
:10034800B2C02CF0B3C02DF0B4C02EF0B5C02FF061
:10035800C0C030F0C1C031F0C2C032F0C3C033F009
:1003680038EC13F02CC0B2F02DC0B3F02EC0B4F0AE
:100378002FC0B5F0B2C094F0B3C095F0B4C096F0F9
:10038800B5C097F0000E0001986F000E996F800EAF
:100398009A6F3F0E9B6F35EC1DF00001D8B0D7EF78
:1003A80001F0D9EF01F0DEEF01F0BA07D8A0BB07E2
:1003B80000EF02F0B2C094F0B3C095F0B4C096F06C
:1003C800B5C097F0000E986F000E996F200E9A6FC7
:1003D800410E9B6F35EC1DF00001D8A0F6EF01F03F
:1003E800F8EF01F000EF02F0BA4BBB2B00EF02F080
:1003F80000EF02F000EF02F0C5BF0EEF02F0C551AA
:1004080007E10D0EC45DD8B00CEF02F00EEF02F05C
:100418002DEF02F0C0C080F0C1C081F0C2C082F0F0
:10042800C3C083F0C4513AEC19F045C084F046C00B
:1004380085F047C086F048C087F026EC0EF080C0F3
:10044800C0F081C0C1F082C0C2F083C0C3F02DEFFC
:1004580002F00001BBBF3CEF02F0BB5107E10A0EFE
:10046800BA5DD8B03AEF02F03CEF02F06DEF02F05F
:10047800C051C111C211C311D8B445EF02F047EF02
:1004880002F0E1EF02F0C0C094F0C1C095F0C2C024
:1004980096F0C3C097F0EAEC1DF000019451951155
:1004A80096119711D8A45BEF02F05DEF02F0E1EF2F
:1004B80002F0BBBF69EF02F0BB5109E1020EBA5D61
:1004C800D8A069EF02F06BEF02F0E1EF02F06DEFF8
:1004D80002F0B2C094F0B3C095F0B4C096F0B5C0C5
:1004E80097F05F0E986F700E996F890E9A6F400E95
:1004F8009B6F35EC1DF00001D8B085EF02F087EF57
:1005080002F08DEF02F0F70EBA27FF0EBB2393EF30
:1005180002F0F80EBA27FF0EBB2393EF02F0BA5190
:10052800EAEC10F045C0B2F046C0B3F047C0B4F0F2
:1005380048C0B5F0C0C01EF0C1C01FF0C2C020F056
:10054800C3C021F0B2C022F0B3C023F0B4C024F07D
:10055800B5C025F05FEC1CF01EC0B6F01FC0B7F0A8
:1005680020C0B8F021C0B9F0D6EF02F0C0C01EF02C
:10057800C1C01FF0C2C020F0C3C021F0B2C022F039
:10058800B3C023F0B4C024F0B5C025F088EC1BF04C
:100598001EC0B6F01FC0B7F020C0B8F021C0B9F037
:1005A800D6EF02F0000E0001C06F000EC16F000E02
:1005B800C26F000EC36F1FEF03F0C0C094F0C1C03C
:1005C80095F0C2C096F0C3C097F0EAEC1DF094C055
:1005D800B6F095C0B7F096C0B8F097C0B9F0C0C0F3
:1005E80094F0C1C095F0C2C096F0C3C097F0B6C0F1
:1005F80024F0B7C025F0B8C026F0B9C027F0000E27
:1006080095EC1AF024C098F025C099F026C09AF00D
:1006180027C09BF0F7EC22F094C0C0F095C0C1F061
:1006280096C0C2F097C0C3F0000E0001BB6F000E69
:10063800BA6F1FEF03F0010EC66F0A0EC619D8A4D1
:1006480028EF03F02AEF03F02EEF03F059EF03F041
:1006580059EF03F0C651040D430EF324F66EFF0E56
:10066800F420F76E0900F550B65D0900F550B7594A
:100678000900F550B8590900F550B959D8B047EFF5
:1006880003F049EF03F04DEF03F059EF03F059EF92
:1006980003F0C62B0A0EC619D8A455EF03F057EF7E
:1006A80003F02EEF03F059EF03F0C6C0A8F0A96BD2
:1006B800A8BFA907C451A827C551A923BA51A8277B
:1006C800BB51A923A851BE5FA951BF5BC451C51135
:1006D800D8B471EF03F073EF03F078EF03F0BE07BF
:1006E800D8A0BF0778EF03F0030EBC15A86F000E63
:1006F800BD15A96FA851A911D8B485EF03F087EFEC
:1007080003F08CEF03F0BE07D8A0BF078CEF03F00F
:10071800BCA591EF03F093EF03F0DBEF03F0030EBA
:10072800BC15A86F000EBD15A96FA851A911D8B4A2
:10073800A0EF03F0A2EF03F0BBEF03F0A0C0D9FFD6
:10074800A1C0DAFF2D0EDF6EA04BA12BBBEF03F08B
:10075800BBEF03F0A0C0D9FFA1C0DAFF300EDF6EF7
:10076800A04BA12BBE07D8A0BF07BBEF03F0BFBFAC
:10077800C8EF03F0BF5106E1BE05D8B0C6EF03F0DD
:10078800C8EF03F0AEEF03F053EF04F053EF04F0BB
:10079800DBEF03F0A0C0D9FFA1C0DAFF200EDF6EA7
:1007A800A04BA12BBE07D8A0BF07DBEF03F0BFBF4C
:1007B800E8EF03F0BF5106E1BE05D8B0E6EF03F05D
:1007C800E8EF03F0CEEF03F0EAEF03F0030EBC15F9
:1007D800A86F000EBD15A96FA851A911D8B4F7EFDD
:1007E80003F0F9EF03F053EF04F0A0C0D9FFA1C064
:1007F800DAFF2D0EDF6EA04BA12B53EF04F053EF61
:1008080004F053EF04F0B6C01EF0B7C01FF0B8C034
:1008180020F0B9C021F0C651040D430EF324F66E42
:10082800FF0EF420F76E0900F5CF22F00900F5CF8E
:1008380023F00900F5CF24F00A00F5CF25F048ECA5
:1008480020F01EC0B2F01FC0B3F020C0B4F021C029
:10085800B5F0B2C02BF0B3C02CF0B4C02DF0B5C0C9
:100868002EF00A0E2F6E000E306E000E316E000E46
:10087800326EF8EC20F02BC0B2F02CC0B3F02DC0D3
:10088800B4F02EC0B5F00001B251300FA0C0D9FFAE
:10089800A1C0DAFFDF6EA04BA12B53EF04F0C6070F
:1008A800C629D8A45AEF04F05CEF04F007EF04F06F
:1008B8006DEF04F06DEF04F0A0C0D9FFA1C0DAFF1E
:1008C800300EDF6EA04BA12BBA07D8A0BB076DEF87
:1008D80004F0BBBF7AEF04F0BB5106E1BA05D8B00B
:1008E80078EF04F07AEF04F060EF04F07CEF04F0A6
:1008F800C5BF88EF04F0C55109E1090EC45DD8A051
:1009080088EF04F08AEF04F08EEF04F0080EC66F4B
:1009180092EF04F0C4C0C6F092EF04F0C651C45F71
:10092800000EC6BFFF0EC55BC651D8B49EEF04F0DB
:10093800A0EF04F0AAEF04F0A0C0D9FFA1C0DAFF2D
:100948002E0EDF6EA04BA12BAAEF04F0C651EAECE5
:1009580010F045C0ACF046C0ADF047C0AEF048C09E
:10096800AFF0C0C030F0C1C031F0C2C032F0C3C077
:1009780033F0ACC02CF0ADC02DF0AEC02EF0AFC03F
:100988002FF038EC13F02CC094F02DC095F02EC049
:1009980096F02FC097F0EAEC1DF094C0B6F095C021
:1009A800B7F096C0B8F097C0B9F04EEF05F0B6C0F2
:1009B8001EF0B7C01FF0B8C020F0B9C021F0000188
:1009C800C651040D430EF324F66EFF0EF420F76EA5
:1009D8000900F5CF22F00900F5CF23F00900F5CF83
:1009E80024F00A00F5CF25F048EC20F01EC0B2F044
:1009F8001FC0B3F020C0B4F021C0B5F0B2C02BF0D6
:100A0800B3C02CF0B4C02DF0B5C02EF00A0E2F6E76
:100A1800000E306E000E316E000E326EF8EC20F0D3
:100A28002BC0B2F02CC0B3F02DC0B4F02EC0B5F07E
:100A38000001B251300FA0C0D9FFA1C0DAFFDF6EAC
:100A4800A04BA12BB6C02BF0B7C02CF0B8C02DF02E
:100A5800B9C02EF0C651040D430EF324F66EFF0EF6
:100A6800F420F76E0900F5CF2FF00900F5CF30F02C
:100A78000900F5CF31F00A00F5CF32F0F8EC20F09C
:100A88002BC0B6F02CC0B7F02DC0B8F02EC0B9F00E
:100A98004EEF05F00001C607C629D8A456EF05F0A9
:100AA80058EF05F0DBEF04F069EF05F069EF05F0AA
:100AB800A0C0D9FFA1C0DAFF300EDF6EA04BA12B7A
:100AC800C407D8A0C50769EF05F0C451C511D8A45B
:100AD80070EF05F072EF05F05CEF05F054EF07F0EA
:100AE80054EF07F0B0C0D9FFB1C0DAFFDECFB6F0DF
:100AF800DDCFB7F0000EB7BFFF0EB86FB96F020EAB
:100B0800B027000EB123B9BF8EEF05F08CEF05F0CA
:100B18009AEF05F0030EBC13B91FB81FB71FB66DC7
:100B2800000EB723B823B9239AEF05F0C451C511B5
:100B3800D8A4A1EF05F0A3EF05F0B2EF05F0B65188
:100B4800B711B811B911D8A4ACEF05F0AEEF05F0A4
:100B5800B2EF05F0C44BC52BB2EF05F0010EC66F1E
:100B68000A0EC619D8A4BBEF05F0BDEF05F0C1EF1A
:100B780005F0ECEF05F0ECEF05F0C651040D430E5F
:100B8800F324F66EFF0EF420F76E0900F550B65DFB
:100B98000900F550B7590900F550B8590900F55042
:100BA800B959D8B0DAEF05F0DCEF05F0E0EF05F061
:100BB800ECEF05F0ECEF05F0C62B0A0EC619D8A429
:100BC800E8EF05F0EAEF05F0C1EF05F0ECEF05F00E
:100BD800800EC6BF7F0EA86FC451C65DC551800A7E
:100BE800A859D8B0FAEF05F0FCEF05F000EF06F0D1
:100BF800C4C0C6F019EF06F0C551800AA86FC651E7
:100C0800C45D800EC6BF7F0EA859D8B00EEF06F09F
:100C180010EF06F019EF06F0C651C46FC56BC4BFDC
:100C2800C50719EF06F019EF06F0BE51BF11D8B489
:100C380020EF06F022EF06F036EF06F0030EBC15A3
:100C4800A86F000EBD15A96FA851A911D8B42FEF30
:100C580006F031EF06F036EF06F0BE07D8A0BF0762
:100C680036EF06F0BDAD3BEF06F03DEF06F05AEF6C
:100C780006F0BE51C45DC551800AA86FBF51800AF5
:100C8800A859D8B04AEF06F04CEF06F052EF06F03C
:100C9800C451BE5FC551BF5B5AEF06F0000EBF6F6F
:100CA800000EBE6F5AEF06F05AEF06F0800EC6BF70
:100CB8007F0EA86FBE51C65DBF51800AA859D8B033
:100CC80068EF06F06AEF06F072EF06F0C651BE5FF5
:100CD800000EC6BFFF0EBF5B78EF06F0000EBF6FB9
:100CE800000EBE6F78EF06F0BCA57DEF06F07FEF33
:100CF80006F0BDEF06F0030EBC15A86F000EBD157B
:100D0800A96FA851A911D8B48CEF06F08EEF06F0A0
:100D180098EF06F0A0C0D9FFA1C0DAFF2D0EDF6E54
:100D2800A04BA12B98EF06F0BE51BF11D8B49FEF8E
:100D380006F0A1EF06F043EF07F0A3EF06F0A0C01E
:100D4800D9FFA1C0DAFF300EDF6EA04BA12BBE0782
:100D5800D8A0BF07BE51BF11D8A4B5EF06F0B7EFB2
:100D680006F0A3EF06F043EF07F043EF07F043EF79
:100D780007F0BE51BF11D8B4C4EF06F0C6EF06F0B5
:100D8800E0EF06F0C8EF06F0A0C0D9FFA1C0DAFF77
:100D9800200EDF6EA04BA12BBE07D8A0BF07BE5107
:100DA800BF11D8A4DAEF06F0DCEF06F0C8EF06F0C2
:100DB800E0EF06F0E0EF06F0030EBC15A86F000E9A
:100DC800BD15A96FA851A911D8B4EDEF06F0EFEF42
:100DD80006F043EF07F0A0C0D9FFA1C0DAFF2D0E3F
:100DE800DF6EA04BA12B43EF07F043EF07F043EF73
:100DF80007F0C4C0A8F0C5C0A9F0D890A837A93793
:100E0800D890A837A937430EA825F66EFF0EA9215A
:100E1800F76E0900F5CF22F00900F5CF23F009009D
:100E2800F5CF24F00A00F5CF25F0B6C01EF0B7C004
:100E38001FF0B8C020F0B9C021F048EC20F01EC067
:100E48002BF01FC02CF020C02DF021C02EF00A0E70
:100E58002F6E000E306E000E316E000E326EF8EC02
:100E680020F02B50300F0001C66FA0C0D9FFA1C0E1
:100E7800DAFFC6C0DFFFA04BA12B43EF07F0C40782
:100E8800D8A0C507C42906E1C529D8A44EEF07F0A4
:100E980050EF07F0FDEF06F054EF07F054EF07F0BE
:100EA800A2C0F6FFA3C0F7FFA24BA32B0800F5CF03
:100EB800C6F0C651D8A463EF07F065EF07F010EF4E
:100EC80000F069EF07F069EF07F0A0C0D9FFA1C0F3
:100ED800DAFF000EDF6E71EF07F01200E3EC23F08B
:100EE8001FEC24F0A4EC20F03AEC24F02CEC24F0D5
:100EF80034EC24F0B2EC23F00C0E0FEC22F09480CA
:100F08000400000E01014E6F020E4E658EEF07F0D1
:100F180090EF07F094EF07F0CDEF07F0CDEF07F073
:100F28004E5146EC21F08DC020F18EC021F18FC0CA
:100F380022F190C023F120C12CF021C12DF022C153
:100F48002EF023C12FF0000E306E000E316EC80E49
:100F5800326E420E336E38EC13F001014E51040D1F
:100F6800300EF324D96E010EF420DA6E2CC0DEFFA9
:100F78002DC0DEFF2EC0DEFF2FC0DEFF4E2B020E7F
:100F88004E65C9EF07F0CBEF07F094EF07F0CDEF10
:100F980007F0000E496EC00E4A6E7F0E4B6E440E6F
:100FA8004C6E000E306E000E316EC80E326E420E60
:100FB800336E30C12CF031C12DF032C12EF033C167
:100FC8002FF038EC13F02CC045F02DC046F02EC0A1
:100FD80047F02FC048F06FEC15F045C024F146C02B
:100FE80025F147C026F148C027F124C12CF025C1BE
:100FF8002DF026C12EF027C12FF0000E306E000E06
:10100800316E000E326E400E336E38EC13F02CC089
:1010180057F12DC058F12EC059F12FC05AF1000ECA
:10102800496EC00E4A6E7F0E4B6E440E4C6E000E1B
:10103800306E000E316EC80E326E420E336E34C101
:101048002CF035C12DF036C12EF037C12FF038EC19
:1010580013F02CC045F02DC046F02EC047F02FC02D
:1010680048F06FEC15F045C094F046C095F047C0C5
:1010780096F048C097F0EAEC1DF094C03CF195C09A
:101088003DF138C14FF139C150F13AC151F13BC17D
:1010980052F1010E286E010E46EC22F0000E0001FE
:1010A800A06F010EA16F6B0EA26FFF0EA36F4FC151
:1010B800A4F050C1A5F051C1A6F052C1A7F009ECA7
:1010C80000F0000E2C6E010E2D6E7BEC23F0020E4C
:1010D800286E010E46EC22F0000E0001A06F010EF2
:1010E800A16F9E0EA26FFF0EA36F57C1A4F058C147
:1010F800A5F059C1A6F05AC1A7F009EC00F0000EFE
:101108002C6E010E2D6E7BEC23F0030E286E010E63
:1011180046EC22F0000E0001A06F010EA16FAE0E8A
:10112800A26FFF0EA36F000EA56F000EA46F09EC4F
:1011380000F0000E2C6E010E2D6E7BEC23F0020EDB
:10114800286E0E0E46EC22F001015E51D8B4AFEFC6
:1011580008F0B1EF08F0B6EF08F0590E0FEC22F0E6
:10116800B9EF08F04E0E0FEC22F0020E286E100EAA
:1011780046EC22F001015D51D8B4C5EF08F0C7EF85
:1011880008F0CCEF08F0590E0FEC22F005EF0EF046
:101198004E0E0FEC22F005EF0EF005EF0EF0000EEC
:1011A80001015D6F8294000E2D6E000E2C6ECCEC4A
:1011B80023F0030E286E0A0E46EC22F05CC01EF0E7
:1011C8005DC01FF0000E216E0A0E206EF9EC23F0B0
:1011D8001EC048F11FC049F1000E0001A06F010EAA
:1011E800A16FF70EA26FFF0EA36F48C1A4F049C10B
:1011F800A5F009EC00F0000E2C6E010E2D6E7BECB4
:1012080023F0250E0FEC22F0040E286E010E46EC9A
:1012180022F0000E0001A06F010EA16F7E0EA26FDA
:10122800FF0EA36F09EC00F0000E2C6E010E2D6E60
:101238007BEC23F084EF07F08284000E01015E6FDF
:101248005A505B10D8A42BEF09F02DEF09F031EFBD
:1012580009F0000E5D6F35EF09F0010E5D6F35EF97
:1012680009F0829A030E286E0A0E46EC22F0000E50
:10127800276E640E266E3CC11EF03DC11FF0030EA2
:10128800216E2068F9EC23F01EC024F01FC025F061
:1012980094EC1EF024C02EF125C02FF12EC124F0AD
:1012A8002FC125F0000E276E020E266E94EC1EF05C
:1012B80024C02CF025C02DF0CCEC23F0000E00014A
:1012C800A06F010EA16FF00EA26FFF0EA36FD89052
:1012D80001013C350001A46F01013D350001A56FF6
:1012E80009EC00F0000E2C6E010E2D6E7BEC23F045
:1012F800250E0FEC22F0040E286E010E46EC22F0AB
:10130800000E0001A06F010EA16F8E0EA26FFF0EDE
:10131800A36F09EC00F0000E2C6E010E2D6E7BEC15
:1013280023F084EF07F0040E286E0B0E46EC22F033
:10133800000E0001A06F010EA16FE80EA26FFF0E54
:10134800A36F000EA56F000EA46F09EC00F0000E4D
:101358002C6E010E2D6E7BEC23F0000E0001946FB5
:10136800000E956F700E966F420E976F53C198F0EE
:1013780054C199F055C19AF056C19BF035EC1DF057
:101388000001D8B0CAEF09F0CCEF09F027EF0BF055
:10139800040E286E010E46EC22F0000E0001A06F2C
:1013A800010EA16FD20EA26FFF0EA36F09EC00F021
:1013B800000E2C6E010E2D6E7BEC23F04FC184F0D5
:1013C80050C185F051C186F052C187F057C132F043
:1013D80058C133F059C134F05AC135F03EEC23F00E
:1013E80032C080F033C081F034C082F035C083F061
:1013F80026EC0EF080C094F081C095F082C096F083
:1014080083C097F0EAEC1DF094C03EF195C03FF11F
:1014180001013FBF18EF0AF03F5108E13E05D8A08F
:1014280018EF0AF01AEF0AF085EF0AF03EC11EF035
:101438003FC11FF0000E216E0A0E206EF9EC23F05A
:101448001EC04AF11FC04BF101014BBF37EF0AF034
:101458004B5107E1190E4A5DD8B035EF0AF037EF66
:101468000AF044EF0AF0000E00019C6F000E9D6F19
:10147800C80E9E6F410E9F6FE2EC1FF07AEF0AF0E4
:1014880001014BBF51EF0AF04B5109E1650E4A5D6E
:10149800D8A051EF0AF053EF0AF060EF0AF0000EFF
:1014A80000019C6F000E9D6FC80E9E6F420E9F6FCD
:1014B800E2EC1FF07AEF0AF04AC124F04BC125F0A4
:1014C800000E25BEFF0E266E276E010E95EC1AF053
:1014D80024C09CF025C09DF026C09EF027C09FF038
:1014E800E2EC1FF07AEF0AF07AEF0AF0010E010140
:1014F8005D6F000E256E000E246E8BEC21F085EFDB
:101508000AF04FC194F050C195F051C196F052C104
:1015180097F057C184F058C185F059C186F05AC177
:1015280087F054C024F055C025F0000E25BEFF0EEC
:10153800266E276E010E95EC1AF024C032F025C0F5
:1015480033F026C034F027C035F03EEC23F032C02B
:1015580080F033C081F034C082F035C083F026ECCF
:101568000EF080C098F081C099F082C09AF083C0D4
:101578009BF035EC1DF00001D8B0C5EF0AF0C7EFBD
:101588000AF0DDEF0AF0000E256E050E246E8BECD6
:1015980021F0000E01015D6F000E00019C6F000E2E
:1015A8009D6F000E9E6F000E9F6FE2EC1FF0DDEF47
:1015B8000AF0030E286E0A0E46EC22F05BC128F1F1
:1015C8005CC129F128C124F029C125F0000E25BEEF
:1015D800FF0E266E276E010E95EC1AF024C045F01A
:1015E80025C046F026C047F027C048F0000E496ED7
:1015F800000E4A6EE00E4B6E400E4C6E6FEC15F00E
:1016080045C044F146C045F147C046F148C047F1DE
:10161800000E0001A06F010EA16FBB0EA26FFF0E9E
:10162800A36F44C1A4F045C1A5F046C1A6F047C1C7
:10163800A7F009EC00F0000E2C6E010E2D6E7BEC6D
:1016480023F084EF07F053C194F054C195F055C1CD
:1016580096F056C197F0000E0001986F000E996F32
:10166800200E9A6F420E9B6F35EC1DF00001D8B02A
:1016780040EF0BF042EF0BF06DEF0CF0040E286E0C
:10168800010E46EC22F0000E0001A06F010EA16FC2
:10169800DD0EA26FFF0EA36F09EC00F0000E2C6E9A
:1016A800010E2D6E7BEC23F057C184F058C185F0F4
:1016B80059C186F05AC187F04FC132F050C133F09A
:1016C80051C134F052C135F03EEC23F032C080F005
:1016D80033C081F034C082F035C083F026EC0EF0C0
:1016E80080C094F081C095F082C096F083C097F0D6
:1016F800EAEC1DF094C040F195C041F1010141BFF1
:101708008EEF0BF0415108E14005D8A08EEF0BF0A9
:1017180090EF0BF0F7EF0BF0000E5D6F8294000E68
:1017280000019C6F000E9D6F000E9E6F000E9F6F54
:10173800E2EC1FF040C15CF041C15DF0000E000119
:10174800946F000E956F500E966F420E976F57C1AB
:1017580098F058C199F059C19AF05AC19BF035ECEC
:101768001DF00001D8B0BBEF0BF0BDEF0BF0C3EFDD
:101778000BF0000E5D6E0A0E5C6EEFEF0BF05DBEB7
:10178800D1EF0BF05D5007E1050E5C5CD8B0CFEFF0
:101798000BF0D1EF0BF0D7EF0BF0000E5D6E050EDE
:1017A8005C6EEFEF0BF05DBEE3EF0BF05D5009E10F
:1017B8000B0E5C5CD8A0E3EF0BF0E5EF0BF0EFEF5E
:1017C8000BF0000E5D6E0A0E5C6EEFEF0BF0EFEFA4
:1017D8000BF0EFEF0BF05CC024F05DC025F08BEC54
:1017E80021F040EF0CF057C184F058C185F059C181
:1017F80086F05AC187F054C024F055C025F0000E79
:1018080025BEFF0E266E276E010E95EC1AF024C039
:1018180080F025C081F026C082F027C083F026EC36
:101828000EF080C094F081C095F082C096F083C01D
:1018380097F04FC198F050C199F051C19AF052C138
:101848009BF035EC1DF00001D8B02DEF0CF02FEF18
:101858000CF040EF0CF0000E01015E6F000E5D6EA3
:10186800000E5C6E000E256E000E246E8BEC21F0CF
:1018780040EF0CF040EF0CF0030E286E0A0E46EC19
:1018880022F05CC01EF05DC01FF0000E216E0A0E33
:10189800206EF9EC23F01EC048F11FC049F1000E7C
:1018A8000001A06F010EA16FF70EA26FFF0EA36FCC
:1018B80048C1A4F049C1A5F009EC00F0000E2C6E57
:1018C800010E2D6E7BEC23F0250E0FEC22F084EF39
:1018D80007F0040E286E010E46EC22F0000E0001FF
:1018E800A06F010EA16FC70EA26FFF0EA36F09ECC8
:1018F80000F0000E2C6E010E2D6E7BEC23F057C10C
:1019080084F058C185F059C186F05AC187F04FC19B
:1019180032F050C133F051C134F052C135F03EECD1
:1019280023F032C080F033C081F034C082F035C07B
:1019380083F026EC0EF080C094F081C095F082C050
:1019480096F083C097F0EAEC1DF094C042F195C080
:1019580043F1010143BFB9EF0CF0435108E14205DF
:10196800D8A0B9EF0CF0BBEF0CF022EF0DF0000E91
:101978005D6F8294000E00019C6F000E9D6F000E3B
:101988009E6F000E9F6FE2EC1FF042C15CF043C1F6
:101998005DF0000E0001946F000E956F500E966F6B
:1019A800420E976F57C198F058C199F059C19AF0F3
:1019B8005AC19BF035EC1DF00001D8B0E6EF0CF0F1
:1019C800E8EF0CF0EEEF0CF0000E5D6E0A0E5C6EA8
:1019D8001AEF0DF05DBEFAEF0CF05D5009E10B0E49
:1019E8005C5CD8A0FAEF0CF0FCEF0CF002EF0DF005
:1019F800000E5D6E0A0E5C6E1AEF0DF05DBE10EF04
:101A08000DF05D5007E1050E5C5CD8B00EEF0DF0EF
:101A180010EF0DF01AEF0DF0000E5D6E050E5C6E06
:101A28001AEF0DF01AEF0DF01AEF0DF05CC024F06C
:101A38005DC025F08BEC21F0B7EF0DF04FC184F0BD
:101A480050C185F051C186F052C187F057C132F0BC
:101A580058C133F059C134F05AC135F03EEC23F087
:101A680032C080F033C081F034C082F035C083F0DA
:101A780026EC0EF080C094F081C095F082C096F0FC
:101A880083C097F0EAEC1DF094C02AF195C02BF1C1
:101A98002AC11EF02BC11FF0000E216E0A0E206E07
:101AA800F9EC23F01EC04CF11FC04DF101014DBFF0
:101AB80069EF0DF04D5107E1190E4C5DD8B067EF95
:101AC8000DF069EF0DF076EF0DF0000E00019C6F40
:101AD800000E9D6FC80E9E6F410E9F6FE2EC1FF0C7
:101AE800ACEF0DF001014DBF83EF0DF04D5109E151
:101AF800650E4C5DD8A083EF0DF085EF0DF092EFE9
:101B08000DF0000E00019C6F000E9D6FC80E9E6FB9
:101B1800420E9F6FE2EC1FF0ACEF0DF04CC124F0C9
:101B28004DC125F0000E25BEFF0E266E276E010E54
:101B380095EC1AF024C09CF025C09DF026C09EF0BC
:101B480027C09FF0E2EC1FF0ACEF0DF0ACEF0DF00A
:101B5800010E01015D6F000E256E000E246E8BECE8
:101B680021F0B7EF0DF0030E286E0A0E46EC22F0B6
:101B78005BC12CF15CC12DF12CC124F02DC125F0E5
:101B8800000E25BEFF0E266E276E010E95EC1AF08C
:101B980024C045F025C046F026C047F027C048F0CD
:101BA800000E496E000E4A6EE00E4B6E400E4C6EF3
:101BB8006FEC15F045C044F146C045F147C046F109
:101BC80048C047F1000E0001A06F010EA16FBB0EC7
:101BD800A26FFF0EA36F44C1A4F045C1A5F046C192
:101BE800A6F047C1A7F009EC00F0000E2C6E010E1C
:101BF8002D6E7BEC23F084EF07F084EF07F084EF81
:101C080007F058C0C7F059C0C8F00001C851000A11
:101C1800D8B411EF0EF084EF07F0C751000AD8B41A
:101C2800D3EF08F0010AD8B420EF09F0030AD8B4BA
:101C380097EF09F084EF07F084EF07F084EF07F0DF
:101C480007EF00F000018351800B906F83518325CB
:101C5800926F82AF32EF0EF034EF0EF037EF0EF0E6
:101C6800928137EF0EF09251D8B43DEF0EF03FEF6E
:101C78000EF056EF0EF09229D8A445EF0EF047EF7C
:101C88000EF051EF0EF0000E806F000E816F000E07
:101C9800826F000E836F51EF0EF0828F000E836FFC
:101CA80060EF0EF0000E806F000E816F000E826FE5
:101CB800000E836F60EF0EF08751800B916F90518B
:101CC8009119D8B46AEF0EF06CEF0EF06FEF0EF0CA
:101CD800908D6FEF0EF087518725916F86AF77EF64
:101CE8000EF079EF0EF07CEF0EF091817CEF0EF0A4
:101CF8009151D8B482EF0EF084EF0EF09BEF0EF006
:101D08009129D8A48AEF0EF08CEF0EF096EF0EF022
:101D1800000E846F000E856F000E866F000E876FB1
:101D280096EF0EF0868F000E876FA5EF0EF0000E6F
:101D3800846F000E856F000E866F000E876FA5EF0B
:101D48000EF09251915DD8B0ACEF0EF0AEEF0EF000
:101D5800D9EF0EF090ADB3EF0EF0B5EF0EF0B9EF8E
:101D68000EF0800E901BB9EF0EF092C093F091C068
:101D780092F093C091F080C093F084C080F093C03B
:101D880084F081C093F085C081F093C085F082C053
:101D980093F086C082F093C086F083C093F087C02A
:101DA80083F093C087F0D9EF0EF0000E936F925135
:101DB800886F896B881F891F884B892B91518A6F7F
:101DC8008B6B88518A2789518B238BBFF5EF0EF0D7
:101DD8008B5109E11A0E8A5DD8A0F5EF0EF0F7EFE6
:101DE8000EF034EF0FF08051811182118311D8A4C5
:101DF80000EF0FF003EF0FF0010E04EF0FF0000EED
:101E0800936F000E806F000E816F000E826F000EC0
:101E1800836F91C092F03FEF0FF034EF0FF093A172
:101E280018EF0FF01AEF0FF020EF0FF0D890933162
:101E38000109936F24EF0FF0D890933324EF0FF03C
:101E480080A129EF0FF02BEF0FF02EEF0FF0938FFB
:101E58002EEF0FF083358333823381338033922B17
:101E68009151925DD8A03BEF0FF03DEF0FF013EFCB
:101E78000FF03FEF0FF090BD44EF0FF046EF0FF07B
:101E88008FEF0FF09251D8A44CEF0FF04EEF0FF0F8
:101E98005AEF0FF0000E806F000E816F000E826FF8
:101EA800000E836FE9EF10F0E9EF10F084518027FE
:101EB80085518123865182238751832383A167EF2C
:101EC8000FF069EF0FF03FEF10F093A16EEF0FF0F6
:101ED80070EF0FF077EF0FF0D8909333935101091B
:101EE800936F7BEF0FF0D89093337BEF0FF080A1C7
:101EF80080EF0FF082EF0FF085EF0FF0938F85EFF3
:101F08000FF083358333823381338033922B3FEF55
:101F180010F03FEF10F08451805D85518159865152
:101F280082598351800A886F8751800A8859D8B0AE
:101F3800A0EF0FF0A2EF0FF0E0EF0FF080C088F0F5
:101F480081C089F082C08AF083C08BF0881F891F06
:101F58008A1F8B1F882B000E89238A238B23845189
:101F680088258C6F855189218D6F86518A218E6FC6
:101F780087518B218F6FFF0E8C25806FFF0E8D216F
:101F8800816FFF0E8E21826FFF0E8F21836F800E6F
:101F9800901B936D9351D8A4D4EF0FF0D6EF0FF0A8
:101FA800E8EF0FF0010E8027000E812382238323A0
:101FB800E8EF0FF0E8EF0FF08451805F8551815B07
:101FC8008651825B8751835B805181118211831115
:101FD800D8A4F1EF0FF0F3EF0FF034EF10F09351B6
:101FE800D8A4F9EF0FF0FBEF0FF034EF10F0000E6C
:101FF800806F000E816F000E826F000E836FE9EF15
:1020080010F0E9EF10F034EF10F0D89080378137F6
:102018008237833793AF13EF10F015EF10F018EFF6
:1020280010F0808118EF10F093A11DEF10F01FEF52
:1020380010F023EF10F0D880933727EF10F0D890E6
:10204800933727EF10F09251D8B42DEF10F02FEFFF
:1020580010F034EF10F0920734EF10F034EF10F076
:1020680082AF39EF10F03BEF10F009EF10F03FEFBF
:1020780010F03FEF10F0000E916F93AF46EF10F0A5
:1020880048EF10F064EF10F093C088F07F0E8817C7
:10209800D8B451EF10F053EF10F057EF10F0010ED5
:1020A800916F64EF10F080A15CEF10F05EEF10F01C
:1020B80064EF10F0010E916F64EF10F064EF10F010
:1020C8009151D8B46AEF10F06CEF10F09DEF10F05A
:1020D800010E8027000E81238223832383A177EFBB
:1020E80010F079EF10F09DEF10F080C088F081C0FB
:1020F80089F082C08AF083C08BF08B358B338A33AA
:102108008933883388C080F089C081F08AC082F022
:102118008BC083F09229D8B494EF10F096EF10F0AA
:102128009DEF10F0922B9DEF10F09DEF10F09DEFBA
:1021380010F09229D8B4A3EF10F0A5EF10F0AFEF8C
:1021480010F09251D8A4ABEF10F0ADEF10F0C5EF3E
:1021580010F0AFEF10F0000E806F000E816F000ED0
:10216800826F000E836F9251D8A4BDEF10F0BFEFBD
:1021780010F0C5EF10F0000E906FC5EF10F0C5EF2E
:1021880010F092A1CAEF10F0CCEF10F0CFEF10F0E2
:10219800828FD2EF10F0829FD2EF10F0D890923158
:1021A800836F90AFDAEF10F0DCEF10F0DFEF10F094
:1021B800838FDFEF10F080C080F081C081F082C093
:1021C80082F083C083F0E9EF10F012004D6E4DBE2F
:1021D800F2EF10F0F0EF10F016EF12F04D6C4D50DA
:1021E800800A120FD8A0FBEF10F0FDEF10F09AEF65
:1021F80011F0000E276E0A0E266E000E216E640E78
:10220800206E4D501E6E1F6A1EBE1F060AEC1FF080
:102218001EC024F01FC025F094EC1EF0D890243680
:102228002536D89024362536240E2426000E25225D
:102238000F0E2424F66EFF0E2520F76E0900F5CF49
:1022480030F00900F5CF31F00900F5CF32F00A007F
:10225800F5CF33F0000E276E640E266E4D50246EB7
:10226800256A24BE250694EC1EF0D890243625361F
:10227800D89024362536480E2426000E25220F0E27
:102288002424F66EFF0E2520F76E0900F5CF2CF0FA
:102298000900F5CF2DF00900F5CF2EF00A00F5CF93
:1022A8002FF038EC13F02CC049F02DC04AF02EC0A6
:1022B8004BF02FC04CF049C02CF04AC02DF04BC059
:1022C8002EF04CC02FF0000E216E0A0E206E4D50DD
:1022D8001E6E1F6A1EBE1F060AEC1FF0D8901E361F
:1022E8001F36D8901E361F360F0E1E24F66EFF0EB0
:1022F8001F20F76E0900F5CF30F00900F5CF31F057
:102308000900F5CF32F00A00F5CF33F038EC13F0BE
:102318002CC045F02DC046F02EC047F02FC048F025
:1023280037EF13F037EF13F0FEEF11F04D50800A3E
:10233800750FD8A0A2EF11F0A4EF11F0FEEF11F085
:10234800000E276E0A0E266E4D50246E256A24BE96
:10235800250694EC1EF0D89024362536D8902436DD
:102368002536240E2426000E25220F0E2424F66E70
:10237800FF0E2520F76E0900F5CF2CF00900F5CFE8
:102388002DF00900F5CF2EF00A00F5CF2FF0000E42
:10239800216E0A0E206E4D501E6E1F6A1EBE1F064D
:1023A8000AEC1FF0D8901E361F36D8901E361F36FE
:1023B8000F0E1E24F66EFF0E1F20F76E0900F5CFD4
:1023C80030F00900F5CF31F00900F5CF32F00A00FE
:1023D800F5CF33F038EC13F02CC045F02DC046F0A3
:1023E8002EC047F02FC048F037EF13F037EF13F047
:1023F800FEEF11F04D50040D0F0EF324F66EFF0E94
:10240800F420F76E0900F5CF45F00900F5CF46F046
:102418000900F5CF47F00A00F5CF48F037EF13F081
:1024280037EF13F04D50800A120FD8A01EEF12F0AC
:1024380020EF12F0BDEF12F0000E276E0A0E266E86
:10244800000E216E640E206E4D501E6E1F6A1EBE59
:102458001F060AEC1FF01EC024F01FC025F094ECE4
:102468001EF0D89024362536D89024362536240EEA
:102478002426000E2522DB0E2424F66EFE0E2520CF
:10248800F76E0900F5CF30F00900F5CF31F00900FB
:10249800F5CF32F00A00F5CF33F0000E276E640E48
:1024A800266E4D50246E256A24BE250694EC1EF037
:1024B800D89024362536D89024362536480E24263A
:1024C800000E2522DB0E2424F66EFE0E2520F76E64
:1024D8000900F5CF2CF00900F5CF2DF00900F5CF54
:1024E8002EF00A00F5CF2FF038EC13F02CC049F08D
:1024F8002DC04AF02EC04BF02FC04CF049C02CF034
:102508004AC02DF04BC02EF04CC02FF0000E216EAB
:102518000A0E206E4D501E6E1F6A1EBE1F060AEC64
:102528001FF0D8901E361F36D8901E361F36DB0E89
:102538001E24F66EFE0E1F20F76E0900F5CF30F050
:102548000900F5CF31F00900F5CF32F00A00F5CFD8
:1025580033F038EC13F02CC045F02DC046F02EC0F7
:1025680047F02FC048F037EF13F037EF13F021EFA3
:1025780013F04D50800A750FD8A0C5EF12F0C7EFC1
:1025880012F021EF13F0000E276E0A0E266E4D5042
:10259800246E256A24BE250694EC1EF0D8902436B5
:1025A8002536D89024362536240E2426000E2522DA
:1025B800DB0E2424F66EFE0E2520F76E0900F5CFFB
:1025C8002CF00900F5CF2DF00900F5CF2EF00A0008
:1025D800F5CF2FF0000E216E0A0E206E4D501E6EA4
:1025E8001F6A1EBE1F060AEC1FF0D8901E361F3643
:1025F800D8901E361F36DB0E1E24F66EFE0E1F20E8
:10260800F76E0900F5CF30F00900F5CF31F0090079
:10261800F5CF32F00A00F5CF33F038EC13F02CC0C8
:1026280045F02DC046F02EC047F02FC048F037EFD8
:1026380013F037EF13F021EF13F04D50040DDB0EBC
:10264800F324F66EFE0EF420F76E0900F5CF45F080
:102658000900F5CF46F00900F5CF47F00A00F5CF9D
:1026680048F037EF13F012002F50800B386E2F50C0
:102678002F243E6E2EAE43EF13F045EF13F048EFD4
:1026880013F03E8048EF13F03E50D8B44EEF13F0ED
:1026980050EF13F065EF13F03E28D8A456EF13F06F
:1026A80058EF13F062EF13F0000E2C6E000E2D6E33
:1026B800000E2E6E000E2F6E62EF13F02E8E6FEF4F
:1026C80013F0000E2C6E000E2D6E000E2E6E000EF6
:1026D8002F6E6FEF13F03350800B381A33503324BA
:1026E8003D6E32AE7AEF13F07CEF13F07FEF13F00C
:1026F8003D807FEF13F03D50D8B485EF13F087EF9E
:1027080013F09CEF13F03D28D8A48DEF13F08FEF52
:1027180013F099EF13F0000E306E000E316E000EBC
:10272800326E000E336E99EF13F0328EA4EF13F071
:10273800000E306E000E316E000E326E000E336EDB
:102748003D50D8B4AAEF13F0ACEF13F0B6EF13F086
:102758003E50D8A4B2EF13F0B4EF13F0C2EF13F069
:10276800B6EF13F0000E2C6E000E2D6E000E2E6EBE
:10277800000E2F6E6EEF15F06EEF15F032502C0232
:10278800F3CF43F0F4CF44F04350396E3A6A3B6AD2
:102798003C6A44503F6E406A416A426A31502D0299
:1027A800F3CF43F0F4CF44F043503926000E3A22D9
:1027B8003B223C2244503F26000E40224122422226
:1027C80030502E02F3CF43F0F4CF44F04350392673
:1027D800000E3A223B223C2244503F26000E402263
:1027E800412242223BC03CF03AC03BF039C03AF0AB
:1027F800396A30502D02F3CF43F0F4CF44F0435000
:10280800392644503A22000E3B22000E3C22315019
:102818002C02F3CF43F0F4CF44F043503926445010
:102828003A22000E3B22000E3C223BC03CF03AC04C
:102838003BF039C03AF0396A30502C02F3CF43F0FC
:10284800F4CF44F04350392644503A22000E3B223C
:10285800000E3C2232502D02F3CF43F0F4CF44F067
:1028680043503F2644504022000E4122000E42228F
:1028780031502E02F3CF43F0F4CF44F043503F26BB
:1028880044504022000E4122000E422232502E02B5
:10289800F3CF43F0F4CF44F04350346E4450356ED8
:1028A800366A376A36C037F035C036F034C035F08E
:1028B800346A34503F263550402236504122375032
:1028C800422239C034F03AC035F03BC036F03CC043
:1028D80037F0190E75EF14F0D8903732363235329A
:1028E8003432E82E70EF14F034503F263550402231
:1028F80036504122375042223BC03CF03AC03BF0B0
:1029080039C03AF0396A3D503EC034F0356A342651
:10291800000E3522820E3424436EFF0E3520446E9D
:10292800ADEF14F0D8903F364036413642363CAED3
:10293800A0EF14F0A2EF14F0A3EF14F03F80D890AA
:1029480039363A363B363C364306D8A04406ADEF16
:1029580014F041AEB2EF14F0B4EF14F096EF14F0A7
:10296800B6EF14F0000E3D6E3CAEBDEF14F0BFEFB5
:1029780014F0E7EF14F0FF0E3914346EFF0E3A141A
:10298800356EFF0E3B14366E7F0E3C14376E345096
:10299800351036103710D8B4D4EF14F0D6EF14F041
:1029A800DAEF14F0010E3D6EE7EF14F03FA0DFEF11
:1029B80014F0E1EF14F0E7EF14F0010E3D6EE7EFCD
:1029C80014F0E7EF14F03D50D8B4EDEF14F0EFEF4A
:1029D80014F017EF15F0010E3F26000E4022412299
:1029E800422242A0FAEF14F0FCEF14F017EF15F0B2
:1029F8003FC034F040C035F041C036F042C037F037
:102A08003734373236323532343234C03FF035C09D
:102A180040F036C041F037C042F0434A442A17EF2D
:102A280015F017EF15F044BE22EF15F0445008E1F9
:102A38004328D8A022EF15F024EF15F02EEF15F05B
:102A4800000E3F6E000E406E800E416E7F0E426E8D
:102A580062EF15F044BE3BEF15F0445006E1430425
:102A6800D8B039EF15F03BEF15F047EF15F0000E31
:102A78003F6E000E406E000E416E000E426E000E5C
:102A8800386E62EF15F043C03EF0FF0E3F16FF0EA2
:102A980040167F0E4116000E42163EA056EF15F066
:102AA80058EF15F05BEF15F0418E5BEF15F0D890FD
:102AB8003E30426E62EF15F062EF15F03850421268
:102AC8003FC02CF040C02DF041C02EF042C02FF086
:102AD8006EEF15F012004850800B0001806F4850CF
:102AE80048248B6F47AE7BEF15F07DEF15F080EF34
:102AF80015F08B8180EF15F08B51D8B486EF15F067
:102B080088EF15F09FEF15F08B29D8A48EEF15F0FC
:102B180090EF15F09AEF15F0000E456E000E466E18
:102B2800000E476E000E486E9AEF15F0478E000EA5
:102B3800486EA9EF15F0000E456E000E466E000EA9
:102B4800476E000E486EA9EF15F04C50800B801BA5
:102B58004C504C248C6F4BAEB4EF15F0B6EF15F01B
:102B6800B9EF15F08C81B9EF15F08C51D8B4BFEFDF
:102B780015F0C1EF15F0D8EF15F08C29D8A4C7EFE0
:102B880015F0C9EF15F0D3EF15F0000E496E000EE1
:102B98004A6E000E4B6E000E4C6ED3EF15F04B8E46
:102BA800000E4C6EE2EF15F0000E496E000E4A6EF4
:102BB800000E4B6E000E4C6EE2EF15F049504A10B5
:102BC8004B104C10D8A4EBEF15F0EDEF15F005EF16
:102BD80016F0000E456E000E466E000E476E000E93
:102BE800486E800E47127F0E481245C045F046C019
:102BF80046F047C047F048C048F07DEF17F07DEF3A
:102C080017F08B51D8A40BEF16F00DEF16F021EF4B
:102C180016F0000E456E000E466E000E476E000E52
:102C2800486E45C045F046C046F047C047F048C02A
:102C380048F07DEF17F07DEF17F08C514D6E4E6A1E
:102C48004D1E4E1E4D4A4E2A8B514F6E506A4D50A6
:102C58004F264E5050227F0E4F24856F000E502075
:102C6800866F45C081F046C082F047C083F048C0F7
:102C780084F0000E456E000E466E000E476E000E84
:102C8800486E000E876F000E886F000E896F000E69
:102C98008A6F000E8C6F8DEF16F08C51D8B457EFF9
:102CA80016F059EF16F072EF16F0D8908137823788
:102CB80083378437D89045364636473648368AAF04
:102CC80068EF16F06AEF16F06BEF16F04580D890B3
:102CD8008737883789378A3772EF16F04950815D10
:102CE8004A5082594B5083594C508459D8A07FEF91
:102CF80016F081EF16F08CEF16F08A8D4950815F3F
:102D08004A50825B4B50835B4C50845B8CEF16F0CF
:102D18008C2B190E8C6593EF16F095EF16F051EF8A
:102D280016F097EF16F08151821183118411D8B4EF
:102D3800A0EF16F0A2EF16F0BEEF16F08781BEEFF7
:102D480016F0BEEF16F0D890453646364736483668
:102D58008AAFB1EF16F0B3EF16F0B4EF16F0458076
:102D6800D8908737883789378A378507D8A0860764
:102D7800BEEF16F047AEC3EF16F0C5EF16F0A7EF9B
:102D880016F0C7EF16F0000E8C6F8AAFCEEF16F074
:102D9800D0EF16F0F8EF16F0FF0E87154D6EFF0E08
:102DA80088154E6EFF0E89154F6E7F0E8A15506E70
:102DB8004D504E104F105010D8B4E5EF16F0E7EF15
:102DC80016F0EBEF16F0010E8C6FF8EF16F045A039
:102DD800F0EF16F0F2EF16F0F8EF16F0010E8C6F28
:102DE800F8EF16F0F8EF16F08C51D8B4FEEF16F0A5
:102DF80000EF17F028EF17F0010E4526000E4622C7
:102E08004722482248A00BEF17F00DEF17F028EFE4
:102E180017F045C04DF046C04EF047C04FF048C0CF
:102E280050F0503450324F324E324D324DC045F092
:102E38004EC046F04FC047F050C048F0854B862B37
:102E480028EF17F028EF17F086BF33EF17F08651F9
:102E580008E18529D8A033EF17F035EF17F042EFD6
:102E680017F0000E866F8569000E456E000E466EDF
:102E7800000E476E000E486E42EF17F086BF4FEF08
:102E880017F0865106E18505D8B04DEF17F04FEFE2
:102E980017F05FEF17F0000E866F000E856F000EBB
:102EA800456E000E466E000E476E000E486E000E10
:102EB800806F5FEF17F085C08BF08BA166EF17F07E
:102EC80068EF17F06BEF17F0478E6EEF17F0479E1D
:102ED8006EEF17F0D8908B31486E8051481245C07C
:102EE80045F046C046F047C047F048C048F07DEF7F
:102EF80017F012000600FACF0CF0FBCF0DF0E9CF67
:102F08000EF0EACF0FF0E1CF10F0E2CF11F0D9CFF9
:102F180012F0DACF13F0F3CF14F0F4CF15F0F6CFA8
:102F280016F0F7CF17F0F8CF18F0F5CF19F062C008
:102F38001AF063C01BF064C01CF065C01DF0A1A2AC
:102F4800A8EF17F0AAEF17F0BFEF17F040EC24F046
:102F580058505910D8A4B3EF17F0B5EF17F014EF85
:102F680019F05CC007F05DC008F0CDEC21F014EF5B
:102F780019F014EF19F0F2A2C4EF17F0C6EF17F02A
:102F8800E9EF17F0F292010E5824016E000E592055
:102F9800026E000E046E030E036E76EC1FF001C085
:102FA80058F002C059F0000E576E000E566E000E13
:102FB800556E000E546E54C05CF055C05DF05CC098
:102FC8005AF05DC05BF014EF19F0F0A0EEEF17F0C7
:102FD800F0EF17F06FEF18F0F09058505910D8A490
:102FE800F8EF17F0FAEF17F017EF18F05C505D10D4
:102FF800D8B401EF18F003EF18F014EF19F0FF0E32
:103008005C24016EFF0E5D20026E000E046E0B0E36
:10301800036E76EC1FF001C05CF002C05DF014EFA7
:1030280019F014EF19F058045910D8A41EEF18F02D
:1030380020EF18F042EF18F05A505B10D8B427EF81
:1030480018F029EF18F03BEF18F0FF0E5A24016E24
:10305800FF0E5B20026E000E046E0B0E036E76EC04
:103068001FF001C05AF002C05BF014EF19F0000E17
:1030780001015D6F14EF19F014EF19F0020E5818E2
:103088005910D8A44AEF18F04CEF18F014EF19F0C3
:1030980054505510D8B453EF18F055EF18F014EFFA
:1030A80019F0FF0E5424016EFF0E5520026E000E1B
:1030B800046E060E036E76EC1FF001C054F002C0D9
:1030C80055F014EF19F014EF19F014EF19F014EF8C
:1030D80019F014EF19F0F0A274EF18F076EF18F069
:1030E800F3EF18F0F09258505910D8A47EEF18F06A
:1030F80080EF18F09EEF18F00A0E5C185D10D8B437
:1031080088EF18F08AEF18F014EF19F0010E5C241C
:10311800016E000E5D20026E000E046E0B0E036E33
:1031280076EC1FF001C05CF002C05DF014EF19F0FE
:1031380014EF19F058045910D8A4A5EF18F0A7EF08
:1031480018F0C5EF18F00A0E5A185B10D8B4AFEF94
:1031580018F0B1EF18F014EF19F0010E5A24016EAF
:10316800000E5B20026E000E046E0B0E036E76ECF2
:103178001FF001C05AF002C05BF014EF19F014EF11
:1031880019F0020E58185910D8A4CDEF18F0CFEF47
:1031980018F014EF19F0050E54185510D8B4D7EFDD
:1031A80018F0D9EF18F014EF19F0010E5424016E3D
:1031B800000E5520026E000E046E060E036E76ECAD
:1031C8001FF001C054F002C055F014EF19F014EFCD
:1031D80019F014EF19F014EF19F014EF19F0F2A424
:1031E800F8EF18F0FAEF18F014EF19F0CF500A6E54
:1031F800CE5001015B6F0AC05CF10B0ED76EDC0E7E
:10320800D66E000ECF6E000ECE6EF29414EF19F04B
:1032180014EF19F014EF19F014EF19F014EF19F076
:103228001DC065F01CC064F01BC063F01AC062F0DA
:1032380019C0F5FF18C0F8FF17C0F7FF16C0F6FF52
:1032480015C0F4FF14C0F3FF13C0DAFF12C0D9FF92
:1032580011C0E2FF10C0E1FF0FC0EAFF0EC0E9FF96
:103268000DC0FBFF0CC0FAFF62921100516E6D0E8B
:10327800516441EF19F043EF19F0F4EF19F0000E23
:10328800276E0A0E266E000E216E640E206E51C047
:103298001EF01F6A0AEC1FF01EC024F01FC025F0A4
:1032A80094EC1EF0D89024362536D890243625364E
:1032B800240E2426000E25220F0E2424F66EFF0E5F
:1032C8002520F76E0900F5CF30F00900F5CF31F071
:1032D8000900F5CF32F00A00F5CF33F0000E276E63
:1032E800640E266E51C024F0256A94EC1EF0D89026
:1032F80024362536D89024362536480E2426000E46
:1033080025220F0E2424F66EFF0E2520F76E0900E5
:10331800F5CF2CF00900F5CF2DF00900F5CF2EF0F0
:103328000A00F5CF2FF038EC13F02CC04DF02DC06B
:103338004EF02EC04FF02FC050F0000E216E0A0E36
:10334800206E51C01EF01F6A0AEC1FF0D8901E367E
:103358001F36D8901E361F360F0E1E24F66EFF0E2F
:103368001F20F76E0900F5CF30F00900F5CF31F0D6
:103378000900F5CF32F00A00F5CF33F04DC02CF03C
:103388004EC02DF04FC02EF050C02FF038EC13F087
:103398002CC049F02DC04AF02EC04BF02FC04CF085
:1033A80049C02CF04AC02DF04BC02EF04CC02FF075
:1033B800000E306E000E316E000E326E3F0E336E10
:1033C80038EC13F02CC045F02DC046F02EC047F065
:1033D8002FC048F094EF1AF094EF1AF06CEF1AF03F
:1033E8000A0E5164FAEF19F0FCEF19F06CEF1AF0BD
:1033F800000E216E0A0E206E51C01EF01F6A0AECE4
:103408001FF0D8901E361F36D8901E361F360F0E66
:103418001E24F66EFF0E1F20F76E0900F5CF30F060
:103428000900F5CF31F00900F5CF32F00A00F5CFE9
:1034380033F0000E276E0A0E266E51C024F0256A5E
:1034480094EC1EF0D89024362536D89024362536AC
:10345800240E2426000E25220F0E2424F66EFF0EBD
:103468002520F76E0900F5CF2CF00900F5CF2DF0D7
:103478000900F5CF2EF00A00F5CF2FF038EC13F045
:103488002CC04DF02DC04EF02EC04FF02FC050F084
:103498004DC02CF04EC02DF04FC02EF050C02FF074
:1034A800000E306E000E316E000E326E3F0E336E1F
:1034B80038EC13F02CC045F02DC046F02EC047F074
:1034C8002FC048F094EF1AF094EF1AF06CEF1AF04E
:1034D8005150040D0F0EF324F66EFF0EF420F76E14
:1034E8000900F5CF2CF00900F5CF2DF00900F5CF34
:1034F8002EF00A00F5CF2FF0000E306E000E316E60
:10350800000E326E3F0E336E38EC13F02CC045F0CF
:103518002DC046F02EC047F02FC048F094EF1AF0A7
:1035280012002C6E2C50D8B49CEF1AF09EEF1AF0B3
:10353800C0EF1AF027BEA5EF1AF0A3EF1AF0C0EFFC
:103548001AF024C028F025C029F026C02AF027C088
:103558002BF0281E291E2A1E2B1E282A000E29227F
:103568002A222B2228C02EF029C02FF02AC030F0A2
:103578002BC031F0CAEF1AF024C02EF025C02FF06E
:1035880026C030F027C031F0CAEF1AF024502510B9
:1035980026102710D8A4D3EF1AF0D5EF1AF0E1EFD0
:1035A8001AF0000E246E000E256E000E266E000E18
:1035B800276E87EF1BF087EF1BF0960E2D6EEDEF51
:1035C8001AF02D2AD890313230322F322E32EDEFC8
:1035D8001AF0000E2E14286E000E2F14296E000EFD
:1035E80030142A6EFE0E31142B6E285029102A1022
:1035F8002B10D8A402EF1BF004EF1BF0E5EF1AF034
:1036080014EF1BF014EF1BF02D2A010E2E26000ECE
:103618002F2230223122D890313230322F322E32BE
:10362800000E2E14286E000E2F14296E000E301472
:103638002A6EFF0E31142B6E285029102A102B10D9
:10364800D8A429EF1BF02BEF1BF008EF1BF037EF86
:103658001BF037EF1BF02D06D8902E362F3630365C
:10366800313637EF1BF030BE3CEF1BF03EEF1BF05E
:1036780048EF1BF0020E2D6044EF1BF046EF1BF0E5
:103688002FEF1BF048EF1BF02DB04DEF1BF04FEF65
:103698001BF057EF1BF0FF0E2E16FF0E2F167F0E96
:1036A8003016FF0E3116D8902D322DC028F0296A19
:1036B8002A6A2B6A28C02BF02A6A296A286A2850A5
:1036C8002E1229502F122A5030122B5031122C5002
:1036D800D8B471EF1BF073EF1BF07DEF1BF027BE22
:1036E8007AEF1BF078EF1BF07DEF1BF0318E7DEF4A
:1036F8001BF02EC024F02FC025F030C026F031C0BA
:1037080027F087EF1BF0120020C026F0276A286AEE
:103718001F34263601E3278026502E6E2E50D8A45B
:1037280098EF1BF09AEF1BF0A6EF1BF0000E1E6E31
:10373800000E1F6E000E206E000E216E5EEF1CF054
:103748005EEF1CF024C026F0276A286A2334263648
:1037580001E3278026502D6E2D50D8A4B6EF1BF01C
:10376800B8EF1BF0C4EF1BF0000E1E6E000E1F6EAC
:10377800000E206E000E216E5EEF1CF05EEF1CF056
:103788001F8EFF0E1E16FF0E1F16000E2016238E0C
:10379800FF0E2216FF0E2316000E2416000E296EA9
:1037A800000E2A6E000E2B6E000E2C6E7F0E2E5E03
:1037B8002D50980F2E5E180E2D6ED89029362A3669
:1037C8002B362C3622501E5C23501F58245020586C
:1037D800D8A0F1EF1BF0F3EF1BF0FAEF1BF022502B
:1037E8001E5E23501F5A2450205A2980D8901E3616
:1037F8001F3620362D2EE1EF1BF003EF1CF02EBEF6
:103808000AEF1CF008EF1CF02EEF1CF02E50800A77
:10381800970FD8B012EF1CF014EF1CF022EF1CF039
:10382800000E1E6E000E1F6E000E206E000E216E22
:103838005EEF1CF05EEF1CF022EF1CF0D8902C32EB
:103848002B322A3229322E3E22EF1CF056EF1CF082
:1038580056EF1CF0170E2E6434EF1CF036EF1CF0F8
:103868004CEF1CF0000E1E6E000E1F6E000E206E38
:10387800000E216E5EEF1CF05EEF1CF04CEF1CF0AA
:10388800D89029362A362B362C362E064CEF1CF0CB
:103898002E50D8A452EF1CF054EF1CF044EF1CF04B
:1038A80056EF1CF029C01EF02AC01FF02BC020F0D4
:1038B8002CC021F01200203421342B6E2B50D8A4B8
:1038C80068EF1CF06AEF1CF076EF1CF0000E1E6E1D
:1038D800000E1F6E000E206E000E216E34EF1DF0DC
:1038E80034EF1DF0243425342A6E2A50D8A47FEFF3
:1038F8001CF081EF1CF08DEF1CF0000E1E6E000E08
:103908001F6E000E206E000E216E34EF1DF034EF96
:103918001DF0208EFF0E1E16FF0E1F16FF0E20161E
:10392800000E2116248EFF0E2216FF0E2316FF0E00
:103938002416000E2516000E266E000E276E000EA9
:10394800286E000E296E7F0E2B5E2A50A00F2B5E6C
:10395800200E2A6EB0EF1CF0D8902636273628366F
:10396800293622501E5C23501F58245020582550B9
:103978002158D8A0C2EF1CF0C4EF1CF0CFEF1CF008
:1039880022501E5E23501F5A2450205A2550215A77
:103998002680CFEF1CF0D8901E361F3620362136F1
:1039A8002A2EB0EF1CF0D9EF1CF02BBEE0EF1CF074
:1039B800DEEF1CF004EF1DF02B50800A9F0FD8B0EB
:1039C800E8EF1CF0EAEF1CF0F8EF1CF0000E1E6E9A
:1039D800000E1F6E000E206E000E216E34EF1DF0DB
:1039E80034EF1DF0F8EF1CF0D89029322832273236
:1039F80026322B3EF8EF1CF02CEF1DF02CEF1DF0BB
:103A08001F0E2B640AEF1DF00CEF1DF022EF1DF0C6
:103A1800000E1E6E000E1F6E000E206E000E216E30
:103A280034EF1DF034EF1DF022EF1DF0D89026364C
:103A38002736283629362B0622EF1DF02B50D8A41E
:103A480028EF1DF02AEF1DF01AEF1DF02CEF1DF0E6
:103A580026C01EF027C01FF028C020F029C021F082
:103A68001200000E000194159C6F000E95159D6FB5
:103A7800800E96159E6F7F0E97159F6F9C519D1116
:103A88009E119F11D8A44BEF1DF04DEF1DF057EF7D
:103A98001DF0000E946F000E956F000E966F000ECD
:103AA800976F57EF1DF0000E98159C6F000E991533
:103AB8009D6F800E9A159E6F7F0E9B159F6F9C5170
:103AC8009D119E119F11D8A46CEF1DF06EEF1DF093
:103AD80078EF1DF0000E986F000E996F000E9A6F28
:103AE800000E9B6F78EF1DF097AF7DEF1DF07FEF15
:103AF8001DF09EEF1DF094C09CF095C09DF096C0FF
:103B08009EF097C09FF09C1F9D1F9E1F9F1F9C2B80
:103B1800000E9D239E239F23000E9C25946F000E6C
:103B28009D21956F000E9E21966F800E9F21976FA5
:103B38009EEF1DF09BAFA3EF1DF0A5EF1DF0C2EFA8
:103B48001DF098C09CF099C09DF09AC09EF09BC053
:103B58009FF09C1F9D1F9E1F9F1F9C2B000E9D2347
:103B68009E239F23000E9C25986F000E9D21996F20
:103B7800000E9E219A6F800E9F219B6F000E941B52
:103B8800000E951B000E961B800E971B000E981BAF
:103B9800000E991B000E9A1B800E9B1B9851945D7A
:103BA800995195599A5196599B519759D8B0DFEF29
:103BB8001DF0E1EF1DF0E4EF1DF0D890E9EF1DF0E6
:103BC800D880E9EF1DF0E9EF1DF0120000019635ED
:103BD8009735536E5350D8A4F4EF1DF0F6EF1DF04F
:103BE80002EF1EF0000E946F000E956F000E966F98
:103BF800000E976F93EF1EF093EF1EF094C098F0AD
:103C080095C099F096C09AF097C09BF0200E12EFDD
:103C18001EF0D8909B339A3399339833E82E0DEFE2
:103C28001EF09851526E968FFF0E9417FF0E95173F
:103C3800FF0E9617000E9717960E535E53BE29EF88
:103C48001EF027EF1EF04DEF1EF05350800A970F1D
:103C5800D8B031EF1EF033EF1EF041EF1EF0000E2A
:103C6800946F000E956F000E966F000E976F93EF8E
:103C78001EF093EF1EF041EF1EF0D8909733963365
:103C880095339433533E41EF1EF077EF1EF077EFF4
:103C98001EF01F0E536453EF1EF055EF1EF06BEF2E
:103CA8001EF0000E946F000E956F000E966F000EBA
:103CB800976F93EF1EF093EF1EF06BEF1EF0D89006
:103CC800943795379637973753066BEF1EF0535056
:103CD800D8A471EF1EF073EF1EF063EF1EF077EFBC
:103CE8001EF077EF1EF05250D8B47DEF1EF07FEF34
:103CF8001EF089EF1EF0971F961F951F946D000EFA
:103D080095239623972389EF1EF094C094F095C0CD
:103D180095F096C096F097C097F093EF1EF01200BA
:103D2800000E296E27BE9DEF1EF09BEF1EF0A5EF3B
:103D38001EF0266C271ED8B0272A010E296EA5EF83
:103D48001EF025BEACEF1EF0AAEF1EF0B4EF1EF079
:103D5800246C251ED8B0252A010E291AB4EF1EF0AE
:103D6800000E2B6E000E2A6E26502710D8B4BFEF17
:103D78001EF0C1EF1EF0F5EF1EF0010E286ECBEF1E
:103D88001EF0D89026362736282ACBEF1EF027AE0D
:103D9800D0EF1EF0D2EF1EF0C5EF1EF0D6EF1EF0EA
:103DA800D6EF1EF0D8902A362B362650245C2750A2
:103DB8002558D8A0E2EF1EF0E4EF1EF0EBEF1EF05E
:103DC8002650245E2750255A2A80EBEF1EF0D89003
:103DD80027322632282ED6EF1EF0F5EF1EF0F5EF2B
:103DE8001EF02950D8B4FBEF1EF0FDEF1EF003EFD4
:103DF8001FF02A6C2B1ED8B02B2A03EF1FF02AC005
:103E080024F02BC025F009EF1FF01200000E236EDE
:103E18001FBE13EF1FF011EF1FF01BEF1FF01E6CFA
:103E28001F1ED8B01F2A010E236E1BEF1FF021BEE4
:103E380022EF1FF020EF1FF028EF1FF0206C211E4B
:103E4800D8B0212A28EF1FF020502110D8B42FEF26
:103E58001FF031EF1FF061EF1FF0010E226E3BEFF4
:103E68001FF0D89020362136222A3BEF1FF021AED2
:103E780040EF1FF042EF1FF035EF1FF046EF1FF045
:103E880046EF1FF020501E5C21501F58D8A04FEF5E
:103E98001FF051EF1FF057EF1FF020501E5E21500A
:103EA8001F5A57EF1FF0D89021322032222E46EFAA
:103EB8001FF061EF1FF061EF1FF02350D8B467EFD8
:103EC8001FF069EF1FF06FEF1FF01E6C1F1ED8B0B8
:103ED8001F2A6FEF1FF01EC01EF01FC01FF075EFE6
:103EE8001FF01200000E066E02BE7FEF1FF07DEF7E
:103EF8001FF087EF1FF0016C021ED8B0022A010ED6
:103F0800066E87EF1FF004BE8EEF1FF08CEF1FF0D8
:103F180094EF1FF0036C041ED8B0042A94EF1FF02E
:103F280003500410D8B49BEF1FF09DEF1FF0CDEFA6
:103F38001FF0010E056EA7EF1FF0D8900336043668
:103F4800052AA7EF1FF004AEACEF1FF0AEEF1FF08D
:103F5800A1EF1FF0B2EF1FF0B2EF1FF00350015CAA
:103F680004500258D8A0BBEF1FF0BDEF1FF0C3EFFD
:103F78001FF00350015E0450025AC3EF1FF0D8909F
:103F880004320332052EB2EF1FF0CDEF1FF0CDEF54
:103F98001FF00650D8B4D3EF1FF0D5EF1FF0DBEFBA
:103FA8001FF0016C021ED8B0022ADBEF1FF001C01F
:103FB80001F002C002F0E1EF1FF01200000E306EB7
:103FC800C00E316E7F0E326E440E336E9CC02CF0E4
:103FD8009DC02DF09EC02EF09FC02FF038EC13F03E
:103FE8002CC045F02DC046F02EC047F02FC048F039
:103FF800000E496E000E4A6EC80E4B6E420E4C6E95
:104008006FEC15F045C0A0F046C0A1F047C0A2F083
:1040180048C0A3F0000E0001846F000E856F000EEB
:10402800866F3F0E876FA0C080F0A1C081F0A2C04C
:1040380082F0A3C083F026EC0EF080C094F081C01B
:1040480095F082C096F083C097F0EAEC1DF094C01A
:10405800A4F095C0A5F00001A5BF3AEF20F0040E2A
:10406800A55DD8A03AEF20F03CEF20F041EF20F01A
:10407800030EA56FA46941EF20F0A4C02CF0A5C0E1
:104088002DF0CCEC23F01200000E266E000E276EE9
:10409800000E286E000E296E2250231024102510C1
:1040A800D8B459EF20F05BEF20F09BEF20F0010E21
:1040B8002A6E67EF20F0D89022362336243625362C
:1040C8002A2A67EF20F025AE6CEF20F06EEF20F083
:1040D8005FEF20F072EF20F072EF20F0D8902636D4
:1040E80027362836293622501E5C23501F58245064
:1040F800205825502158D8A084EF20F086EF20F0D2
:1041080091EF20F022501E5E23501F5A2450205A4F
:104118002550215A268091EF20F0D890253224325C
:10412800233222322A2E72EF20F09BEF20F026C095
:104138001EF027C01FF028C020F029C021F012006F
:1041480084948492000E1F6E190E1E6E97EC23F055
:10415800010E286E030E2864B4EF20F0B6EF20F0AD
:10416800BAEF20F0CEEF20F0CEEF20F0030E0EECE9
:1041780024F0000E1F6E060E1E6E97EC23F0282A00
:10418800030E2864CAEF20F0CCEF20F0BAEF20F03D
:10419800CEEF20F0020E0EEC24F0000E286E030E77
:1041A8002864D9EF20F0DBEF20F0DFEF20F0F7EF05
:1041B80020F0F7EF20F02850010D5E0EF324D96EA1
:1041C800000EF420DA6EDF50266E000EA3EC22F00B
:1041D800282A030E2864F3EF20F0F5EF20F0DFEF34
:1041E80020F0F7EF20F012002F503010311032106D
:1041F800D8B401EF21F003EF21F03DEF21F0010EDB
:10420800336E0FEF21F0D8902F36303631363236F4
:10421800332A0FEF21F032AE14EF21F016EF21F020
:1042280007EF21F01AEF21F01AEF21F02F502B5C45
:1042380030502C5831502D5832502E58D8A027EFD6
:1042480021F029EF21F033EF21F02F502B5E305071
:104258002C5A31502D5A32502E5A33EF21F0D89023
:104268003232313230322F32332E1AEF21F03DEF15
:1042780021F02BC02BF02CC02CF02DC02DF02EC01F
:104288002EF012000001956F00019551CFEC22F03D
:104298001EC096F01FC097F096C01EF097C01FF082
:1042A800000E216E050E206EF9EC23F01EC024F0DE
:1042B8001FC025F0000E25BEFF0E266E276E010ECC
:1042C80095EC1AF024C045F025C046F026C047F00A
:1042D80027C048F0000E496EC00E4A6E7F0E4B6E26
:1042E800440E4C6E6FEC15F045C091F046C092F04C
:1042F80047C093F048C094F091C08DF092C08EF002
:1043080093C08FF094C090F08AEF21F0120056C04D
:104318001EF057C01FF0000E216E0B0E206E0AEC27
:104328001FF01EC056F01FC057F05650245C255091
:10433800800A266E5750800A2658D8A0A6EF21F08A
:10434800A8EF21F0B9EF21F024502510D8B4AFEF31
:1043580021F0B1EF21F0B9EF21F0828A010E0101BD
:104368005E6F564A572ABEEF21F0829A564A572A5C
:10437800BEEF21F024502510D8A4C5EF21F0C7EFD7
:1043880021F0CCEF21F0000E01015E6FCCEF21F09F
:10439800120056C001F057C002F0000E046E0B0E5A
:1043A800036E76EC1FF001C056F002C057F056506D
:1043B800075C0850800A096E5750800A0958D8A02F
:1043C800E8EF21F0EAEF21F0FBEF21F007500810A9
:1043D800D8B4F1EF21F0F3EF21F0FBEF21F0828A5E
:1043E800010E01015E6F564A572A00EF22F0829AA9
:1043F800564A572A00EF22F007500810D8A407EFB2
:1044080022F009EF22F00EEF22F0000E01015E6F9C
:104418000EEF22F012002B6E36EF22F0010E266E00
:10442800000EA3EC22F0000E1F6E020E1E6E97EC1B
:1044380023F045EF22F0020E286E010E46EC22F022
:1044480045EF22F0100E266E000EA3EC22F045EF89
:1044580022F02BC026F0010EA3EC22F045EF22F04B
:1044680045EF22F02B50080AD8B426EF22F0020AB2
:10447800D8B41FEF22F0060AD8B412EF22F02DEFBD
:1044880022F01200296E5BEF22F0800E2A6E6EEF8A
:1044980022F0C00E2A6E6EEF22F0900E2A6E6EEF9A
:1044A80022F0D00E2A6E6EEF22F06EEF22F0285026
:1044B800010AD8B449EF22F0030AD8B44DEF22F02C
:1044C800010AD8B451EF22F0070AD8B455EF22F008
:1044D8006EEF22F029042A262A508009266E000E43
:1044E800A3EC22F01200900EF66E480EF76E000E46
:1044F800F86E0900F5CF5EF18C0EF66E480EF76E79
:10450800000EF86E00EE5EF010EE04F00900F5CF34
:10451800EEFFE550E150FAE101EE4FF00F0EEE6AC2
:10452800E806FDE100EE54F00A0EEE6AE806FDE149
:1045380062906292000EF86E000172EF07F0276E2B
:1045480027B002D0849401D08484010E1DEC23F09E
:10455800010E1DEC23F0849226380F0B0EEC24F08C
:1045680026500F0B0EEC24F02750D8B4BEEF22F0E3
:10457800C0EF22F0C6EF22F0320E0400E82EFDD77D
:10458800CEEF22F0000E1F6E020E1E6E97EC23F087
:10459800CEEF22F01200246E24C020F020462046E0
:1045A800C2502018C30B2018C26EC282DCEF22F062
:1045B800C2B2E1EF22F0E3EF22F0DCEF22F0E5EF08
:1045C80022F0C350C4CF20F0216A20C021F0206A15
:1045D8002010226E2150236E22C01EF023C01FF02F
:1045E800F6EF22F01200000E0001981B000E991B36
:1045F800000E9A1B800E9B1B94C080F095C081F022
:1046080096C082F097C083F098C084F099C085F076
:104618009AC086F09BC087F026EC0EF080C094F01C
:1046280081C095F082C096F083C097F01CEF23F00C
:104638001200216E000E236E000E226E29EF23F069
:104648000400224A232A29EF23F021501E6E1F6AF4
:1046580022501E5C1F50800A206E2350800A20586A
:10466800D8B039EF23F03BEF23F024EF23F03DEFF0
:1046780023F012003250331034103510D8B447EFFD
:1046880023F049EF23F053EF23F0000E321A000E07
:10469800331A000E341A800E351A53EF23F032C045
:1046A80032F033C033F034C034F035C035F05DEF4C
:1046B80023F01200206E000E1F6E3A0E206067EF86
:1046C80023F069EF23F075EF23F02F0E20646FEFCE
:1046D80023F071EF23F075EF23F0010E1F6E75EFD5
:1046E80023F01FC01EF01E307AEF23F0120088EF6F
:1046F80023F02CC0D9FF2DC0DAFFDF500FEC22F0D9
:104708002C4A2D2A88EF23F02CC0D9FF2DC0DAFFC0
:10471800DF50D8A492EF23F094EF23F07DEF23F03D
:1047280096EF23F01200000E216E000E206EA4EF0B
:1047380023F0C80E04000400E82EFCD7204A212AE2
:1047480020501E5C21501F58D8B0ADEF23F0AFEFBA
:1047580023F09DEF23F0B1EF23F01200000E9E6EC0
:10476800000EA16EA092000EB16E000EA06EA08287
:10477800B180D09E000EF06EF086F088000EF16ECB
:10478800000EF26EF28EF28CF288F28AF292120029
:104798002CC02EF02DC02FF0D8902F322E32D8906A
:1047A8002F322E322E50BE6E2CC02EF0030E2E1637
:1047B8002E3ABD502E18CF0B2E18BD6E1200000ECB
:1047C800D56EF294D580D582D5940B0ED76EDC0EBB
:1047D800D66ECD82CD9ACD98000ECF6E000ECE6EDD
:1047E800F28EF28ACD80D58E12001E502002F3CFB1
:1047F80022F0F4CF23F01E502102F35023261F503D
:104808002002F350232622C01EF023C01FF00DEF14
:1048180024F01200256E25C024F0243A8350241871
:104828000F0B2418836E010E1DEC23F08482040004
:1048380000F084921200000EC26E0C0EC16E9368D6
:10484800800E946E9268000E956E000E966E1200A1
:10485800CB68000ECA6E0C0EBD6ECA84949412000A
:104868009E0EB36E580EB26EA1921200000EC26E6A
:10487800C280890EC06E12009E0EB36E580EB26EC4
:09488800A1921200280C010601A6
:10FEDA00000000803F000020410000C84200007A74
:10FEEA004400401C460050C34700247449809618B9
:10FEFA004B20BCBE4C286B6E4EF9021550EC78AD07
:10FF0A0060CAF249710000803FCDCCCC3D0AD723AC
:10FF1A003C6F12833A17B7D138ACC52737BD37863D
:10FF2A003595BFD63377CC2B325F708930FFE6DB4D
:10FF3A002E08E53C1E6042A20D010000000A0000E6
:10FF4A000064000000E803000010270000A08601FA
:10FF5A000040420F008096980000E1F50500CA9A19
:10FF6A003B52543A2530332E30326643202020202B
:10FF7A00482043004D443A204F4646202020202066
:10FF8A00202020004D443A20436F6F6C202020200F
:10FF9A002020200053503A2530332E303266432039
:10FFAA002020200048533A2530332E303266432031
:10FFBA000020523D2530352E3032660A004D443A33
:10FFCA004175746F204843004D443A4175746F205F
:10FFDA00434C004D443A4175746F20485400202028
:10FFEA0048533D25640020433A2533640020483AAB
:05FFFA00253364000046
:020000040020DA
:08000000FFFFFFFFFFFFFFFF00
:020000040030CA
:0E000000FF011F1FFF8385FF0FC00FE00F40A1
:00000001FF
