:0400000019EF0DF0F7
:101000000001000A006400E803102701001000003E
:1010100001001052617968616E20536868616465EF
:101020006820262054616C61205A617965642061D2
:10103000737369676E6D656E7423310D0A004C45DC
:1010400044732042696E3A20256425642564256432
:1010500025642564256425640D0A004C45447320ED
:101060004865783A203078253032580D0A00303102
:1010700032333435363738394142434445460052DD
:10108000656C6179313A200052656C6179323A20A1
:1010900000436F6F6C65723A200048656174657239
:1010A0003A20004F46462E0D0A004F4E2E0D0A00E4
:0110B000003F
:1010B2000C0EC16E000E8D6E8DCF8CFF8CCF8BFF10
:1010C2008BCF8AFF8ACF89FF92689368000E966E53
:1010D20096CF95FF800E946E000EF26E000EF16EAA
:1010E200E4EC0CF0130E026E100E036E49EC0CF0E1
:1010F200040005EC0DF00009D8B461D11EEC0DF02E
:101102000101C86F3AD1000E0D6E010E0E6E5B0E1C
:101112000F6E100E106E83CF11F0126A9CEC0AF063
:10112200000E026E010E036E49EC0CF0000E0D6E05
:10113200010E0E6E3E0E0F6E100E106E83AE02D0BA
:10114200010E01D0000E116E126A83AC02D0010EA4
:1011520001D0000E136E146A83AA02D0010E01D0D0
:10116200000E156E166A83A802D0010E01D0000E81
:10117200176E186A83A602D0010E01D0000E196EF6
:101182001A6A83A402D0010E01D0000E1B6E1C6AE3
:1011920083A202D0010E01D0000E1D6E1E6A83A032
:1011A20002D0010E01D0000E1F6E206A9CEC0AF0E4
:1011B200000E026E010E036E49EC0CF000D182AA01
:1011C20004D0AA0EC96F100E03D0A30EC96F100E61
:1011D200CA6F9A0E026E100E036E49EC0CF0C9C172
:1011E20002F0CAC103F049EC0CF082A405D0AA0EA9
:1011F2000101C96F100E04D0A30E0101C96F100EB8
:10120200CA6F910E026E100E036E49EC0CF0C9C14A
:1012120002F0CAC103F049EC0CF082A005D0AA0E7C
:101222000101C96F100E04D0A30E0101C96F100E87
:10123200CA6F7F0E026E100E036E49EC0CF0C9C12C
:1012420002F0CAC103F049EC0CF084A005D0AA0E4A
:101252000101C96F100E04D0A30E0101C96F100E57
:10126200CA6F880E026E100E036E49EC0CF0C9C1F3
:1012720002F0CAC103F049EC0CF0A1D0829A828438
:101282009ED0828A82949BD0829099D0828097D07D
:10129200848095D083B003D02F6A2F2A01D02F6A81
:1012A20083502F18FE0B2F18836E83B203D02F6A40
:1012B2002F2A01D02F6A2F4683502F18FD0B2F188B
:1012C200836E83BC03D02F6A2F2A01D02F6A2F3A54
:1012D2002F462F4683502F18BF0B2F18836E83BEC5
:1012E20003D02F6A2F2A01D02F6A2F322F32835038
:1012F2002F187F0B32D083B403D02F6A2F2A01D04C
:101302002F6A2F462F4683502F18FB0B2F18836E00
:1013120083B603D02F6A2F2A01D02F6A2F462F4679
:101322002F4683502F18F70B2F18836E83B803D0E4
:101332002F6A2F2A01D02F6A2F3A83502F18EF0BD2
:101342002F18836E83BA03D02F6A2F2A01D02F6AF7
:101352002F3A2F4683502F18DF0B2F18836E2FD072
:1013620083908392839483968398839A839C839EAB
:10137200829A82948290849022D0C851430AD8B42F
:1013820085D7070AD8B4B7D7030AD8B418D70F0A33
:10139200D8B477D71A0AD8B47BD7310AD8B474D75D
:1013A200070AD8B477D7030AD8B4ADD60F0AD8B48F
:1013B20065D71A0AD8B4DFD7080AD8B4D1D781B012
:1013C2000DD0000E836E83CF82FF82CF80FF000E8E
:1013D200026EFA0E016ED1EC0CF08AD681B209D0FF
:1013E200829A8284000E026EFA0E016ED1EC0CF02B
:1013F2007FD681B409D0828A8294000E026EFA0EE0
:10140200016ED1EC0CF074D681B639D083B003D022
:101412002F6A2F2A01D02F6A83502F18FE0B2F1804
:10142200836E83B203D02F6A2F2A01D02F6A2F46F0
:1014320083502F18FD0B2F18836E83BC03D02F6AA5
:101442002F2A01D02F6A2F3A2F462F4683502F186A
:10145200BF0B2F18836E83BE03D02F6A2F2A01D0B1
:101462002F6A2F322F3283502F187F0B2F18836E43
:10147200000E026EFA0E016ED1EC0CF039D681B874
:101482003BD083B403D02F6A2F2A01D02F6A2F4674
:101492002F4683502F18FB0B2F18836E83B603D071
:1014A2002F6A2F2A01D02F6A2F462F462F468350AC
:1014B2002F18F70B2F18836E83B803D02F6A2F2AA9
:1014C20001D02F6A2F3A83502F18EF0B2F18836EFB
:1014D20083BA03D02F6A2F2A01D02F6A2F3A2F46C0
:1014E20083502F18DF0B2F18836E000E026EFA0E38
:1014F200016ED1EC0CF0FCD581BAFAD582B003D0E2
:101502002F6A2F2A01D02F6A82502F18FE0B2F1814
:10151200826E84B003D02F6A2F2A01D02F6A8450A2
:101522002F18FE0B2F18846E000E026EFA0E016E3B
:10153200D1EC0CF0DDD5110E266E000E276E95D182
:10154200250E2E18D8B409D00DC0D9FF0EC0DAFF6F
:101552002EC0DFFF0D4A0E2A88D1000E2D6E000E1E
:101562002C6E000E2B6E03D02B840F4A102A0FC054
:10157200F6FF10C0F7FF0800F550300AD8B4F4D7D0
:101582000FC0F6FF10C0F7FF0800F550F6EC0CF0A4
:10159200D8A035D0000E2D6E000E2C6E2CC001F09E
:1015A2002DC002F0000E046E0A0E036EBEEC0CF0AB
:1015B20001C02CF002C02DF0D00E216EFF0E226E63
:1015C2000FC0F6FF10C0F7FF0800F550236E246A23
:1015D200215023262250242223502C2624502D220F
:1015E2000F4A102A0FC0F6FF10C0F7FF0800F5508F
:1015F200F6EC0CF0D8A003D0D1D72B8E1AD00FC0A6
:10160200F6FF10C0F7FF0F4A102A0800F5CF2EF0A0
:101612002E50000AD8B435D1580AD8B4EED73C0AB5
:10162200D8B407D00D0AD8B404D0110AD8B4E5D77B
:101632001CD12BBE15D026C0D9FF27C0DAFFDECFC2
:1016420029F0DDCF2AF0020E2626000E27222AAE2E
:1016520044D0030E2B12296C2A1ED8B02A2A3DD060
:1016620026C0D9FF27C0DAFFDECF29F0DDCF2AF06E
:10167200020E2626000E272230D0010E2E6E050EF7
:101682002E18D8B432D02E50020D010EF324F66E6D
:10169200100EF420F76E0900F550295C0900F55090
:1016A2002A58D8A022D02E2AEAD7010E2E6E040E76
:1016B2002E18D8B41AD02E50020D0B0EF324F66E4B
:1016C200100EF420F76E0900F550295C0900F55060
:1016D2002A58D8A00AD02E2AEAD72B50800B000A0B
:1016E200D8B4CBD7800AD8B4E0D72C502D10D8B4B8
:1016F20009D02BC021F0030E2116D8B403D02C063A
:10170200D8A02D06800E2EBE7F0E216E2C502E5C90
:101712002D50800A2158D8B007D02E502C5E000ED2
:101722002EBEFF0E2D5A04D0000E2D6E000E2C6E12
:101732002BA41ED02BC021F0030E2116D8B408D042
:101742000DC0D9FF0EC0DAFF2D0EDF6E0D4A0E2A34
:101752002C502D10D8B42DD00DC0D9FF0EC0DAFFF9
:10176200300EDF6E0D4A0E2A2C06D8A02D06F0D7B9
:101772002C502D10D8B40FD00DC0D9FF0EC0DAFFF7
:10178200200EDF6E0D4A0E2A2C06D8A02D062C50F4
:101792002D10D8A4F1D72BC021F0030E2116D8B4F6
:1017A20008D00DC0D9FF0EC0DAFF2D0EDF6E0D4A34
:1017B2000E2A2EC028F055D02850020D010EF32417
:1017C200F66E100EF420F76E0900F5CF03F00A0052
:1017D200F5CF04F029C001F02AC002F074EC0CF03D
:1017E20001C008F002C009F0000E0B6E0A0E0A6E6C
:1017F2009DEC0CF00850300F2E6E2BD029C001F05A
:101802002AC002F02850020D0B0EF324F66E100EC1
:10181200F420F76E0900F5CF03F00A00F5CF04F0CB
:1018220074EC0CF001500F0B256E2550010D6E0E5D
:10183200F324F66E100EF420F76E0800F5CF2EF0AA
:1018420008D02B50800B000AD8B4B6D7800AD8B47F
:10185200D5D70DC0D9FF0EC0DAFF2EC0DFFF0D4A6B
:101862000E2A28062828D8A4ECD70FC0F6FF10C0ED
:10187200F7FF0F4A102A0800F5CF2EF02E50D8A4F9
:101882005FD60DC0D9FF0EC0DAFF000EDF6E120068
:1018920015D002C0F6FF03C0F7FF000EF86E0F0E60
:1018A200F76403D00800F55005D0F6CFE9FFF7CF73
:1018B200EAFFEF5011EC0DF0024A032A02C0F6FFD4
:1018C20003C0F7FF000EF86E0F0EF76403D0080096
:1018D200F55005D0F6CFE9FFF7CFEAFFEF50000948
:1018E200D8B41200D6D7000E066E000E056E035055
:1018F2000410D8B41CD0010E076E04D0D890033661
:101902000436072A04AEFAD7D890053606360350B5
:10191200015C04500258D8A005D00350015E045067
:10192200025A0580D89004320332072EEDD705C043
:1019320001F006C002F012000A500B10D8B418D001
:10194200010E0C6E04D0D8900A360B360C2A0BAE60
:10195200FAD70A50085C0B500958D8A004D00A5094
:10196200085E0B50095AD8900B320A320C2EF1D76E
:1019720008C008F009C009F0120001500302F3CFB9
:1019820005F0F4CF06F001500402F350062602508F
:101992000302F350062605C001F006C002F0120051
:1019A200000E046E000E036E07D0C80E0400040081
:1019B200E82EFCD7034A042A0150035C0250045863
:1019C200D8B01200F2D7B896000EAC6E190EAF6EF8
:1019D200000EB06EAC84AC8A000EAB6EAB88AB8EE0
:1019E200AECF01F0AECF01F01200036E000E026E18
:1019F2003A0E036005D02F0E036402D0010E026E70
:101A020002C001F001301200ABB402D0ABA202D08E
:101A1200AB98AB889EAA02D0010E1200000E1200F3
:101A2200016E01D00400ACA2FDD701C0ADFF1200CF
:101A3200000EF86E000159EF08F0AECF01F0015030
:021A4200120090
:020000040020DA
:08000000FFFFFFFFFFFFFFFF00
:020000040030CA
:0E000000FF011F1FFF8385FF0FC00FE00F40A1
:00000001FF
