:040300004CEF17F0B7
:1010000000010000000A00000064000000E8030086
:101010000010270000A086010040420F0080969833
:101020000000E1F50500CA9A3B00803F0020410026
:10103000C842007A44401C4650C34724744997185C
:101040004BBCBE4C6B6E4E03155079AD60F34971CD
:1010500000803FCDCC3DD7233C12833AB7D138C670
:101060002737388635C0D633CC2B32708930E7DB52
:101070002EE53C1E42A20D54616C612652617968D6
:10108000616E0056313D25342E3266562000543DA7
:0710900025342E326600003A
:10109800440E506E000E516E6FEF0CF0250E651861
:1010A800D8B408D040C0D9FF41C0DAFF65C0DFFF1F
:1010B8006DEF0CF0000E596E000E586E000E576E54
:1010C800000E566E42C0F6FF43C0F7FF0800F55009
:1010D800E6EC17F0D8A032D0000E596E000E586E0C
:1010E80058C00FF059C010F0000E126E0A0E116EA3
:1010F8008BEC17F00FC058F010C059F0D00E476EA7
:10110800FF0E486E42C0F6FF43C0F7FF0800F550D7
:10111800496E4A6A4750492648504A22495058263B
:101128004A505922424A432A42C0F6FF43C0F7FFB9
:101138000800F550E6EC17F0D8B0D2D742C0F6FF59
:1011480043C0F7FF0800F5502E0AD8A42ED0578CBC
:10115800424A432A000E646E000E636E1BD063C0C1
:101168000FF064C010F0000E126E0A0E116E8BECB8
:1011780017F042C0F6FF43C0F7FF0800F5500F26EE
:10118800000E1022D00E0F24636EFF0E1020646E26
:10119800424A432A42C0F6FF43C0F7FF0800F55011
:1011A800E6EC17F0D8A009D0DAD7000E646E000E6E
:1011B800636E578802D0578411D042C0F6FF43C0EF
:1011C800F7FF424A432A0800F5CF65F06550000A48
:1011D800D8B48ED3660AD8B4EED77DD3070E571489
:1011E800D8B4EED257A804D0000E646E060E636E13
:1011F80050C0D9FF51C0DAFFDECF60F0DECF61F01A
:10120800DDCF62F0030E5026000E512262AE10D0E0
:1012180060C001F061C002F062C003F0B1EC17F0E9
:1012280001C060F002C061F003C062F0030E561204
:10123800000E5F6E000E5E6E605061106210D8B4D2
:1012480083D0820E476EFF0E486E60C049F061C0C1
:101258004AF062C04BF063C04CF0100E05D0D89035
:101268004C324B324A324932E82EF9D7495047249A
:101278005E6E000E48205F6E5E06D8A05F065EC0F8
:101288000FF05FC010F0000E126E030E116E8BECA3
:1012980017F00FC05EF010C05FF05EC007F05FC0CF
:1012A80008F0000E0A6E0A0E096ED7EC14F007C09B
:1012B8005EF008C05FF05FAE03D05E06D8A05F06A0
:1012C8005E50000883EC0CF024C05AF025C05BF097
:1012D80026C05CF05AC015F05BC016F05CC017F071
:1012E80060C018F061C019F062C01AF069EC12F021
:1012F80015C05AF016C05BF017C05CF05AC001F078
:101308005BC002F05CC003F0000E046E800E056E38
:101318003F0E066E8FEC14F0D8B004D05E06D8A04D
:101328005F0612D05AC001F05BC002F05CC003F047
:10133800000E046E200E056E410E066E8FEC14F042
:10134800D8A002D05E4A5F2A64BE06D064501BE172
:101358000D0E635CD8B017D060C02EF061C02FF0BE
:1013680062C030F0635087EC0EF024C031F025C025
:1013780032F026C033F0B0EC0FF02EC060F02FC072
:1013880061F030C062F05FBE06D05F501EE10A0E09
:101398005E5CD8B01AD0605061106210D8B451D0D9
:1013A80060C02BF061C02CF062C02DF0E3EC12F0AD
:1013B8002B502C102D102E10D8B45FBE42D05F5089
:1013C80004E1020E5E5CD8A03CD05AC001F05BC0BC
:1013D80002F05CC003F0700E046E890E056E400EBC
:1013E800066E8FEC14F0D8B002D0F70E01D0F80ECC
:1013F8005E26FF0E5F225E5083EC0CF024C05AF08C
:1014080025C05BF026C05CF060C001F061C002F04E
:1014180062C003F05AC004F05BC005F05CC006F07F
:101428003CEC11F001C052F002C053F003C054F07C
:1014380004C055F0000E606E000E616E000E626E04
:1014480032D060C02BF061C02CF062C02DF0E3EC0C
:1014580012F02BC052F02CC053F02DC054F02EC007
:1014680055F060C03AF061C03BF062C03CF052C039
:1014780009F053C00AF054C00BF055C00CF0F6EC5C
:1014880015F009C03DF00AC03EF00BC03FF0BFECBC
:1014980016F03AC060F03BC061F03CC062F0000E4C
:1014A8005F6E000E5E6E010E656E0A0E6518D8B48A
:1014B80018D06550040D010EF324F66E100EF420BA
:1014C800F76E0900F550525C0900F55053580900B1
:1014D800F55054580900F5505558D8A002D0652A3F
:1014E800E4D765C047F0486A47BE480663504726B8
:1014F800645048225E5047265F5048224750585E45
:101508004850595A63506410D8B403D05806D8A02C
:101518005906030E5614476E000E5714486E47506E
:101528004810D8B40CD008D040C0D9FF41C0DAFF69
:10153800200EDF6E404A412A5806D8A0590659BEE7
:1015480005D05950F1E15804D8B0EED7030E56141F
:10155800476E000E5714486E47504810D8B44FD005
:1015680040C0D9FF41C0DAFF2D0E46D052C001F06D
:1015780053C002F054C003F055C004F06550040D88
:10158800010EF324F66E100EF420F76E0900F5CF65
:1015980005F00900F5CF06F00900F5CF07F00A00BD
:1015A800F5CF08F019EC15F001C05AF002C05BF055
:1015B80003C05CF004C05DF05AC001F05BC002F0EB
:1015C8005CC003F05DC004F00A0E056E000E066EE6
:1015D800000E076E000E086E92EC15F001C05AF06E
:1015E80002C05BF003C05CF004C05DF05A50300FDD
:1015F80040C0D9FF41C0DAFFDF6E404A412A650684
:101608006528D8B40CD0B2D740C0D9FF41C0DAFFA2
:10161800300EDF6E404A412A5E06D8A05F065FBEE4
:1016280005D05F50F1E15E04D8B0EED764BE09D0B2
:10163800645004E1090E635CD8A003D0080E656EFF
:1016480002D063C065F06550635E000E65BEFF0E94
:10165800645A6550D8B408D040C0D9FF41C0DAFFF9
:101668002E0EDF6E404A412A655083EC0CF024C0F0
:101678004DF025C04EF026C04FF060C018F061C094
:1016880019F062C01AF04DC015F04EC016F04FC0E8
:1016980017F069EC12F015C02BF016C02CF017C02B
:1016A8002DF0E3EC12F02BC052F02CC053F02DC0FB
:1016B80054F02EC055F06FD052C001F053C002F064
:1016C80054C003F055C004F06550040D010EF32416
:1016D800F66E100EF420F76E0900F5CF05F009003C
:1016E800F5CF06F00900F5CF07F00A00F5CF08F0AE
:1016F80019EC15F001C05AF002C05BF003C05CF0B1
:1017080004C05DF05AC001F05BC002F05CC003F099
:101718005DC004F00A0E056E000E066E000E076E20
:10172800000E086E92EC15F001C05AF002C05BF092
:1017380003C05CF004C05DF05A50300F40C0D9FFC0
:1017480041C0DAFFDF6E404A412A52C001F053C05F
:1017580002F054C003F055C004F06550040D010EAA
:10176800F324F66E100EF420F76E0900F5CF05F09D
:101778000900F5CF06F00900F5CF07F00A00F5CF0C
:1017880008F092EC15F001C052F002C053F003C00B
:1017980054F004C055F065066528D8B40CD08CD731
:1017A80040C0D9FF41C0DAFF300EDF6E404A412AFF
:1017B8006306D8A0640663506410D8B48CD0F0D700
:1017C80063506410D8A408D05250531054105510C8
:1017D800D8A402D0634A642A800E65BE7F0E476E85
:1017E8006350655C6450800A4758D8B003D063C022
:1017F80065F010D06450800A476E6550635C800EB7
:1018080065BE7F0E4758D8B005D06550636E646AD0
:1018180063BE640658505910D8B40DD0030E561440
:10182800476E000E5714486E47504810D8B403D07E
:101838005806D8A0590657AC13D05850635C64506A
:10184800800A476E5950800A4758D8B005D063506F
:10185800585E6450595A04D0000E596E000E586EE6
:10186800800E65BE7F0E476E5850655C5950800AE1
:101878004758D8B007D06550585E000E65BEFF0EB9
:10188800595A04D0000E596E000E586E585059100F
:10189800D8B40FD040C0D9FF41C0DAFF200EDF6EA8
:1018A800404A412A5806D8A0590658505910D8A479
:1018B800F1D7030E5614476E000E5714486E475062
:1018C8004810D8B408D040C0D9FF41C0DAFF2D0E67
:1018D800DF6E404A412A42C0F6FF43C0F7FF424A42
:1018E800432A0800F5CF65F06550D8A452EF08F0F8
:1018F80040C0D9FF41C0DAFF000EDF6E12002A6E29
:101908002AAE01D12A6C2A50800A120FD8A091D091
:10191800000E126E030E116E000E0A6E0A0E096E8C
:10192800000E046E640E036E2A50016E026A01BE38
:1019380002065AEC15F001C007F002C008F0D7EC17
:1019480014F0090E07240F6E000E0820106E8BECA1
:1019580017F0500E0F24F66E100E1020F76E0900C7
:10196800F5CF18F00900F5CF19F00A00F5CF1AF0F5
:10197800000E0A6E640E096E2A50076E086A07BECA
:101988000806D7EC14F0120E07240F6E000E08207C
:10199800106E000E126E030E116E8BEC17F0500EC7
:1019A8000F24F66E100E1020F76E0900F5CF15F013
:1019B8000900F5CF16F00A00F5CF17F069EC12F020
:1019C80015C027F016C028F017C029F027C015F059
:1019D80028C016F029C017F0000E126E030E116E03
:1019E800000E046E0A0E036E2A50016E026A01BED2
:1019F80002065AEC15F001C00FF002C010F08BEC93
:101A080017F0500E0F24F66E100E1020F76E090016
:101A1800F5CF18F00900F5CF19F00A00F5CF1AF044
:101A280069EC12F015C024F016C025F017C026F096
:101A380012002A50800A750FD8A053D0000E0A6EE3
:101A48000A0E096E2A50076E086A07BE0806D7EC08
:101A580014F0090E07240F6E000E0820106E000EF9
:101A6800126E030E116E8BEC17F0500E0F24F66EEB
:101A7800100E1020F76E0900F5CF15F00900F5CF0C
:101A880016F00A00F5CF17F0000E126E030E116E55
:101A9800000E046E0A0E036E2A50016E026A01BE21
:101AA80002065AEC15F001C00FF002C010F08BECE2
:101AB80017F0500E0F24F66E100E1020F76E090066
:101AC800F5CF18F00900F5CF19F00A00F5CF1AF094
:101AD80069EC12F015C024F016C025F017C026F0E6
:101AE80012002A50030D500EF324F66E100EF42047
:101AF800F76E0900F5CF24F00900F5CF25F00A00AC
:101B0800F5CF26F012002A50800A120FD8A091D0E3
:101B1800000E126E030E116E000E0A6E0A0E096E8A
:101B2800000E046E640E036E2A50016E026A01BE36
:101B380002065AEC15F001C007F002C008F0D7EC15
:101B480014F0090E07240F6E000E0820106E8BEC9F
:101B580017F0290E0F24F66E100E1020F76E0900EC
:101B6800F5CF18F00900F5CF19F00A00F5CF1AF0F3
:101B7800000E0A6E640E096E2A50076E086A07BEC8
:101B88000806D7EC14F0120E07240F6E000E08207A
:101B9800106E000E126E030E116E8BEC17F0290EEC
:101BA8000F24F66E100E1020F76E0900F5CF15F011
:101BB8000900F5CF16F00A00F5CF17F069EC12F01E
:101BC80015C027F016C028F017C029F027C015F057
:101BD80028C016F029C017F0000E126E030E116E01
:101BE800000E046E0A0E036E2A50016E026A01BED0
:101BF80002065AEC15F001C00FF002C010F08BEC91
:101C080017F0290E0F24F66E100E1020F76E09003B
:101C1800F5CF18F00900F5CF19F00A00F5CF1AF042
:101C280069EC12F015C024F016C025F017C026F094
:101C380012002A50800A750FD8A053D0000E0A6EE1
:101C48000A0E096E2A50076E086A07BE0806D7EC06
:101C580014F0090E07240F6E000E0820106E000EF7
:101C6800126E030E116E8BEC17F0290E0F24F66E10
:101C7800100E1020F76E0900F5CF15F00900F5CF0A
:101C880016F00A00F5CF17F0000E126E030E116E53
:101C9800000E046E0A0E036E2A50016E026A01BE1F
:101CA80002065AEC15F001C00FF002C010F08BECE0
:101CB80017F0290E0F24F66E100E1020F76E09008B
:101CC800F5CF18F00900F5CF19F00A00F5CF1AF092
:101CD80069EC12F015C024F016C025F017C026F0E4
:101CE80012002A50030D290EF324F66E100EF4206C
:101CF800F76E0900F5CF24F00900F5CF25F00A00AA
:101D0800F5CF26F012002D6E6D0E2D649FD0000EBB
:101D1800126E030E116E000E0A6E0A0E096E000E88
:101D2800046E640E036E2DC001F0026A5AEC15F0C1
:101D380001C007F002C008F0D7EC14F0090E072420
:101D48000F6E000E0820106E8BEC17F0500E0F244B
:101D5800F66E100E1020F76E0900F5CF18F0090086
:101D6800F5CF19F00A00F5CF1AF0000E0A6E640ECE
:101D7800096E2DC007F0086AD7EC14F0120E07247C
:101D88000F6E000E0820106E000E126E030E116EFC
:101D98008BEC17F0500E0F24F66E100E1020F76E15
:101DA8000900F5CF15F00900F5CF16F00A00F5CFB8
:101DB80017F069EC12F015C02AF016C02BF017C006
:101DC8002CF0000E126E030E116E000E046E0A0E39
:101DD800036E2DC001F0026A5AEC15F001C00FF035
:101DE80002C010F08BEC17F0500E0F24F66E100E98
:101DF8001020F76E0900F5CF18F00900F5CF19F09B
:101E08000A00F5CF1AF02AC015F02BC016F02CC026
:101E180017F069EC12F015C027F016C028F017C0AB
:101E280029F027C015F028C016F029C017F0000EB9
:101E3800186E000E196E3F0E1A6E69EC12F015C07E
:101E480024F016C025F017C026F012000A0E2D64E3
:101E580063D0000E126E030E116E000E046E0A0E91
:101E6800036E2DC001F0026A5AEC15F001C00FF0A4
:101E780002C010F08BEC17F0500E0F24F66E100E07
:101E88001020F76E0900F5CF18F00900F5CF19F00A
:101E98000A00F5CF1AF0000E0A6E0A0E096E2DC060
:101EA80007F0086AD7EC14F0090E07240F6E000E2D
:101EB8000820106E000E126E030E116E8BEC17F0D8
:101EC800500E0F24F66E100E1020F76E0900F5CF95
:101ED80015F00900F5CF16F00A00F5CF17F069ECF8
:101EE80012F015C02AF016C02BF017C02CF02AC02B
:101EF80015F02BC016F02CC017F0000E186E000E4F
:101F0800196E3F0E1A6E69EC12F015C024F016C057
:101F180025F017C026F012002D50030D500EF324A3
:101F2800F66E100EF420F76E0900F5CF15F00900D3
:101F3800F5CF16F00A00F5CF17F0000E186E000E58
:101F4800196E3F0E1A6E69EC12F015C024F016C017
:101F580025F017C026F0120030C034F0356A366A12
:101F68002F34343601E335803450396E33C034F0C1
:101F7800356A366A3234343601E335803450386E87
:101F88003950D8B40BD03850395CD8B00ED039504D
:101F980000083824346E180E346407D031C02EF08F
:101FA80032C02FF033C030F012003850D8B40BD004
:101FB8003950385CD8B00ED0385000083924346E07
:101FC800180E346407D02EC02EF02FC02FF030C06A
:101FD80030F01200060E376E30BE378E33BE378CA7
:101FE8002F8EFF0E2E16FF0E2F16000E3016328E75
:101FF800FF0E3116FF0E3216000E33163850395CBC
:10200800D8B01BD0D89031363236333638063950EE
:102018003818D8B40DD0370637C034F0070E341648
:10202800D8B406D0EFD7D89030322F322E32392A92
:1020380038503918D8B41FD0F6D73950385CD8B0D2
:102048001AD0D8902E362F363036390639503818EF
:10205800D8B40DD0370637C034F0070E3416D8B4CC
:1020680006D0EFD7D890333232323132382A38504E
:102078003918D8A4F7D737AE0CD0FF0E2E1AFF0E9A
:102088002F1AFF0E301A010E2E26000E2F22000ED8
:10209800302237AC0CD0FF0E311AFF0E321AFF0E69
:1020A800331A010E3126000E3222000E3322000EA2
:1020B800376E2E5031262F5032223050332233AE15
:1020C8000ED0FF0E311AFF0E321AFF0E331A010E10
:1020D8003126000E3222000E3322010E376E31C037
:1020E80001F032C002F033C003F039C004F037C049
:1020F80005F038EC14F001C02EF002C02FF003C038
:1021080030F01200000E0001EC6F010EEB6F000EB4
:10211800F26E76EC17F0C3EC17F0C5EC15F009EC8D
:1021280018F00C0E4FEC16F0010E0B6E010E9EEC23
:1021380016F0770E0F6E100E106E24EC16F04E0E81
:10214800026E200E016E9EEC17F0770E026E100ED6
:10215800036E61EC17F00C0E4FEC16F00400010E44
:102168000B6E010E9EEC16F0000ED0EC13F033C08F
:10217800E8F034C0E9F035C0EAF0800E406E000E99
:10218800416E830E426E100E436EE8C044F0E9C003
:1021980045F0EAC046F04CEC08F0010ED0EC13F024
:1021A80033C0E8F034C0E9F035C0EAF0000E186E2C
:1021B800C80E196E420E1A6EE8C015F0E9C016F086
:1021C800EAC017F069EC12F015C024F016C025F02B
:1021D80017C026F0000E276EA00E286E400E296E3E
:1021E8005DEC13F024C0E4F025C0E5F026C0E6F06D
:1021F800800E016E000E026EDFEC16F0800E0124D8
:10220800406E000E0220416E8E0E426E100E436E1E
:10221800E4C044F0E5C045F0E6C046F04CEC08F0F8
:10222800800E0F6E000E106E24EC16F0F5EC17F011
:102238000009D8B493D70FEC18F00001E76F020E2D
:102248000B6EEB519EEC16F00001E7514FEC16F0C7
:102258000001EB4BEC2B100EEB19EC11D8A47ED738
:10226800000EEC6F010EEB6F0C0E4FEC16F076D7EC
:1022780003C007F0086A096A0234073601E30880D8
:1022880007500F6E0F50D8A409D0000E016E000E33
:10229800026E000E036E000E046E120006C007F0F8
:1022A800086A096A0534073601E3088007500E6E8C
:1022B8000E50D8A409D0000E016E000E026E000E5A
:1022C800036E000E046E1200028EFF0E0116FF0E42
:1022D8000216000E0316058EFF0E0416FF0E0516D5
:1022E800000E0616000E0A6E000E0B6E000E0C6E27
:1022F800000E0D6E7F0E0F5E0E50980F0F5E180EBB
:102308000E6ED8900A360B360C360D360450015C2A
:102318000550025806500358D8A007D00450015E53
:102328000550025A0650035A0A80D89001360236E0
:1023380003360E2EE6D70FAE16D00F50800A970F31
:10234800D8B009D0000E016E000E026E000E036EAA
:10235800000E046E1200D8900D320C320B320A3285
:102368000F3EF9D715D0170E0F640FD0000E016E6F
:10237800000E026E000E036E000E046E1200D8905E
:102388000A360B360C360D360F060F50D8A4F7D781
:102398000AC001F00BC002F00CC003F00DC004F03D
:1023A8001200033404340C6E0C50D8A409D0000E6B
:1023B800016E000E026E000E036E000E046E120017
:1023C800063407340B6E0B50D8A409D0000E016EEA
:1023D800000E026E000E036E000E046E1200038ED5
:1023E800FF0E0116FF0E0216FF0E0316000E04164E
:1023F800068EFF0E0416FF0E0516FF0E0616000EBB
:102408000716000E076E000E086E000E096E000E0D
:102418000A6E7F0E0C5E0B50A00F0C5E200E0B6E2A
:10242800D8900736083609360A360450015C05503C
:1024380002580650035807500458D8A009D0045031
:10244800015E0550025A0650035A0750045A078085
:10245800D89001360236033604360B2EE1D70CAE7F
:1024680016D00C50800A9F0FD8B009D0000E016E0C
:10247800000E026E000E036E000E046E1200D8905D
:102488000A320932083207320C3EF9D715D01F0E2E
:102498000C640FD0000E016E000E026E000E036E6B
:1024A800000E046E1200D8900736083609360A3630
:1024B8000C060C50D8A4F7D707C001F008C002F0EA
:1024C80009C003F00AC004F0120017C01BF01C6A10
:1024D8001D6A16341B3601E31C801B501E6E1E50ED
:1024E800D8A407D0000E156E000E166E000E176EDB
:1024F80012001AC01BF01C6A1D6A19341B3601E34E
:102508001C801B50236E2350D8A407D0000E156ED4
:10251800000E166E000E176E120023507B0F1E263B
:1025280017C023F01A50231A800E2316168E198E00
:10253800FF0E1816FF0E1916000E1A16000E1F6E43
:10254800000E206E000E216E070E226E15A006D01A
:1025580018501F26195020221A502122D8901732BD
:1025680016321532D890183619361A36222EEED76A
:10257800090E226E15A006D018501F2619502022C9
:102588001A502122D890173216321532D89021329B
:1025980020321F32222EEED71FC001F020C002F0D9
:1025A80021C003F01EC004F023C005F038EC14F07D
:1025B80001C015F002C016F003C017F012002DC0BC
:1025C8002FF0306A316A2C342F3601E330802F50D7
:1025D800396E3950D8A409D0000E2B6E000E2C6E1F
:1025E800000E2D6E000E2E6E1200170E2F6E2BC0D1
:1025F80030F02CC031F02DC032F02F28336E04D0CB
:10260800D890323231323032332EFAD73050346EDD
:102618002C8EFF0E2B16FF0E2C16000E2D162B508F
:10262800356E2C50366E2D50376E386A8E0E395EE8
:1026380039AE16D03950800A8F0FD8B009D0000EA5
:102648002B6E000E2C6E000E2D6E000E2E6E1200DC
:10265800D8903832373236323532393EF9D715D03C
:10266800170E39640FD0000E2B6E000E2C6E000E64
:102678002D6E000E2E6E1200D8903536363637364F
:10268800383639063950D8A4F7D73450D8B408D0DA
:10269800381E371E361E356C000E36223722382279
:1026A80035C02BF036C02CF037C02DF038C02EF0D6
:1026B800120026C02AF02B6A2C6A25342A3601E338
:1026C8002B802A50316E3150D8A407D0000E246ECA
:1026D800000E256E000E266E120029C02AF02B6A05
:1026E8002C6A28342A3601E32B802A50326E325065
:1026F800D8A407D0000E246E000E256E000E266E9C
:102708001200000E2E6E000E2F6E000E306E32502C
:10271800890F315E26C032F02950321A800E3216E7
:10272800258EFF0E2416FF0E2516000E2616288E5F
:10273800FF0E2716FF0E2816000E2916180E2D6EEE
:10274800D8902E362F3630362750245C28502558FE
:1027580029502658D8A007D02750245E2850255A3B
:102768002950265A2E80D8902436253626362D2EE6
:10277800E7D72EC001F02FC002F030C003F031C0FF
:1027880004F032C005F038EC14F001C024F002C0A7
:1027980025F003C026F012003E6E3E04D8A432D0C5
:1027A8003E50FCEC16F001C03CF002C03DF03CC0CD
:1027B8000FF03DC010F0000E126E960E116E8BECED
:1027C80017F00FC015F010C016F019EC17F015C06F
:1027D80024F016C025F017C026F0C00E276E7F0E15
:1027E800286E440E296E5DEC13F024C036F025C027
:1027F80037F026C038F036C039F037C03AF038C064
:102808003BF02BD03E50FCEC16F001C03CF002C06F
:102818003DF03CC00FF03DC010F0000E126E050EEA
:10282800116E8BEC17F00FC015F010C016F019ECF4
:1028380017F015C024F016C025F017C026F0C00EFA
:10284800276E7F0E286E440E296E5DEC13F024C0AF
:1028580039F025C03AF026C03BF039C033F03AC011
:1028680034F03BC035F012000450D8B405D0015004
:1028780002100310D8A40CD0000E016E000E026ED8
:10288800000E036E1200042AD8900332023201327D
:10289800000E0114066E000E0214076EFE0E0314DD
:1028A800086E065007100810D8B40CD0ECD7042ACC
:1028B800010E0126000E0222000E0322D8900332D8
:1028C80002320132000E0114066E000E0214076E69
:1028D800FF0E0314086E065007100810D8B406D06F
:1028E800E6D70406D89001360236033602BE03D076
:1028F800020E0460F6D704A0029ED8900432045059
:1029080003120550D8A4038E01C001F002C002F0E2
:1029180003C003F0120003AE16D001C007F002C0D6
:1029280008F003C009F0071E081E091E072A000E3A
:1029380008220922000E0724016E000E0820026EEC
:10294800800E0920036E06AE16D004C007F005C03D
:1029580008F006C009F0071E081E091E072A000E07
:1029680008220922000E0724046E000E0820056EB6
:10297800800E0920066E000E011A000E021A800E43
:10298800031A000E041A000E051A800E061A0450C7
:10299800015C0550025806500358D8B002D0D890B0
:1029A8001200D8801200000E0C6E0AAE06D0096C18
:1029B8000A1ED8B00A2A010E0C6E08AE06D0076CA3
:1029C800081ED8B0082A010E0C1A000E0E6E000E52
:1029D8000D6E09500A10D8B41CD0010E0B6E04D02D
:1029E800D89009360A360B2A0AAEFAD7D8900D368F
:1029F8000E360950075C0A500858D8A005D009506F
:102A0800075E0A50085A0D80D8900A3209320B2EF8
:102A1800EDD70C50D8B404D00D6C0E1ED8B00E2AC9
:102A28000DC007F00EC008F01200000E096E000E6F
:102A38000A6E000E0B6E000E0C6E05500610071085
:102A48000810D8B42AD0010E0D6E06D0D8900536DD
:102A58000636073608360D2A08AEF8D7D890093654
:102A68000A360B360C360550015C065002580750E2
:102A7800035808500458D8A009D00550015E0650E4
:102A8800025A0750035A0850045A0980D89008324D
:102A98000732063205320D2EE1D709C001F00AC00F
:102AA80002F00BC003F00CC004F01200000E066E1A
:102AB80002AE06D0016C021ED8B0022A010E066EC4
:102AC80004AE04D0036C041ED8B0042A03500410CA
:102AD800D8B418D0010E056E04D0D8900336043649
:102AE800052A04AEFAD70350015C04500258D8A056
:102AF80004D00350015E0450025AD89004320332C5
:102B0800052EF1D70650D8B404D0016C021ED8B0F7
:102B1800022A01C001F002C002F01200055006109E
:102B280007100810D8B424D0010E096E06D0D8902A
:102B38000536063607360836092A08AEF8D705508E
:102B4800015C065002580750035808500458D8A092
:102B580008D00550015E0650025A0750035A085023
:102B6800045AD8900832073206320532092EE7D7C0
:102B780001C001F002C002F003C003F004C004F079
:102B8800120083928396000E026E190E016E9EEC5F
:102B980017F0010E0B6E030E0B6401D00BD0030E61
:102BA800D5EC17F0000E026E060E016E9EEC17F0C3
:102BB8000B2AF1D7020ED5EC17F0000E0B6E030EA0
:102BC8000B6401D012000B50010D660EF324D96E70
:102BD800000EF420DA6EDF50096E000E7AEC16F063
:102BE8000B2AEDD78E0E116E06D0D8900C320B3210
:102BF8000A320932112A000E09140D6E000E0A1449
:102C08000E6E000E0B140F6EFF0E0C14106E0D508E
:102C18000E100F101010D8A4E8D709C001F00AC090
:102C280002F00BC003F011C004F0000E056E38EC82
:102C380014F001C009F002C00AF003C00BF0120042
:102C480015D00FC0F6FF10C0F7FF000EF86E0F0E7C
:102C5800F76403D00800F55005D0F6CFD9FFF7CFB9
:102C6800DAFFDF504FEC16F00F4A102A0FC0F6FFBC
:102C780010C0F7FF000EF86E0F0EF76403D00800BF
:102C8800F55005D0F6CFD9FFF7CFDAFFDF500009AE
:102C9800D8B41200D6D70E6E1ED0010E096E000EE3
:102CA8007AEC16F0000E026E020E016E9EEC17F022
:102CB8001200020E0B6E010E9EEC16F01200100EA2
:102CC800096E000E7AEC16F012000EC009F0010E23
:102CD8007AEC16F012000E50080AD8B4F0D7020A9F
:102CE800D8B4E7D7060AD8B4D8D7EFD70A6E0AB04F
:102CF80002D0839201D08382010E35EC17F0010EC9
:102D080035EC17F0839609380F0BD5EC17F00950FE
:102D18000F0BD5EC17F00A50D8B405D0320E0400CA
:102D2800E82EFDD71200000E026E020E016E9EEC18
:102D380017F012000C6E09D0800E05D0C00E03D01B
:102D4800900E01D0D00E0D6E0DD00B50010AD8B4E4
:102D5800F3D7030AD8B4F2D7010AD8B4F1D7070ACF
:102D6800D8B4F0D70C040D260D508009096E000E5A
:102D78007AEC16F012003D503E103F10D8B406D041
:102D8800000E3D1A000E3E1A800E3F1A3AC02EF071
:102D98003BC02FF03CC030F03DC031F03EC032F0B7
:102DA8003FC033F0B0EC0FF02EC03AF02FC03BF02C
:102DB80030C03CF0120001C005F002C006F002D09D
:102DC800054A062A05C0D9FF06C0DAFFDF50D8A495
:102DD800F7D701C003F002C004F0031E041E034A23
:102DE800042A05500324016E06500420026E1200C6
:102DF800076E07C003F003460346C2500318C30B0F
:102E08000318C26EC282C2B2FED7C350C4CF03F049
:102E1800046A03C004F0036A0310056E0450066ECA
:102E280005C001F006C002F01200000E186E16AEC2
:102E380006D0156C161ED8B0162A010E186E15C0CD
:102E480001F016C002F0036A8E0E046E18C005F079
:102E580038EC14F001C015F002C016F003C017F0EA
:102E68001200046E000E066E000E056E03D00400FC
:102E7800054A062A0450016E026A0550015C025098
:102E8800800A036E0650800A0358D8A01200EFD7B4
:102E9800260EF66E300EF76E000EF86E00EE66F037
:102EA80010EE04F00900F5CFEEFFE550E150FAE12D
:102EB800000EF86E000186EF10F00AD002C0F6FF8F
:102EC80003C0F7FF0800F55001EC18F0024A032A86
:102ED80002C0F6FF03C0F7FF0800F5500009D8B498
:102EE8001200ECD70C0EC16E000E8D6E8DCF8CFFCC
:102EF8008CCF8BFF8BCF8AFF8ACF89FF926893682C
:102F0800000E966E96CF95FF800E946E12000F50AD
:102F18001102F3CF13F0F4CF14F00F501202F35054
:102F2800142610501102F350142613C00FF014C0C9
:102F380010F01200000E046E000E036E07D0C80ECB
:102F480004000400E82EFCD7034A042A0150035C5D
:102F580002500458D8B01200F2D7015002100310E2
:102F6800D8B406D0000E011A000E021A800E031AF9
:102F780001C001F002C002F003C003F01200B886DD
:102F8800000EAC6E670EAF6E000EB06EAC84AC8AED
:102F9800000EAB6EAB88AB8EAECF01F0AECF01F0BA
:102FA8001200086E08C007F0073A835007180F0B85
:102FB8000718836E010E35EC17F08386040000F0C5
:102FC80083961200036E000E026E3A0E036005D05F
:102FD8002F0E036402D0010E026E02C001F0013010
:102FE8001200ABB402D0ABA202D0AB98AB889EAAB9
:102FF80002D0010E1200000E1200016E01D0040072
:10300800ACA2FDD701C0ADFF1200000EC26EC28097
:10301800890EC06E1200AECF01F001501200280CCC
:0230280001069F
:020000040020DA
:08000000FFFFFFFFFFFFFFFF00
:020000040030CA
:0E000000FF011F1FFF8385FF0FC00FE00F40A1
:00000001FF
